{
  "_format": "hh-sol-artifact-1",
  "contractName": "GhostBoy",
  "sourceName": "contracts/GhostBoy.sol",
  "abi": [
    {
      "inputs": [
        {
          "internalType": "address",
          "name": "vault",
          "type": "address"
        },
        {
          "internalType": "uint96",
          "name": "_reserved",
          "type": "uint96"
        },
        {
          "internalType": "string",
          "name": "_placeholderTokenUri",
          "type": "string"
        }
      ],
      "stateMutability": "nonpayable",
      "type": "constructor"
    },
    {
      "inputs": [
        {
          "internalType": "address",
          "name": "minter",
          "type": "address"
        }
      ],
      "name": "MintingCapped",
      "type": "error"
    },
    {
      "inputs": [],
      "name": "MintingComplete",
      "type": "error"
    },
    {
      "inputs": [],
      "name": "MintingLocked",
      "type": "error"
    },
    {
      "inputs": [],
      "name": "MissingToken",
      "type": "error"
    },
    {
      "inputs": [
        {
          "internalType": "uint256",
          "name": "provided",
          "type": "uint256"
        },
        {
          "internalType": "uint256",
          "name": "required",
          "type": "uint256"
        }
      ],
      "name": "MissingValue",
      "type": "error"
    },
    {
      "inputs": [
        {
          "internalType": "address",
          "name": "operator",
          "type": "address"
        }
      ],
      "name": "OperatorNotAllowed",
      "type": "error"
    },
    {
      "inputs": [
        {
          "internalType": "uint256",
          "name": "startTime",
          "type": "uint256"
        },
        {
          "internalType": "uint256",
          "name": "endTime",
          "type": "uint256"
        }
      ],
      "name": "OutsideWindow",
      "type": "error"
    },
    {
      "inputs": [
        {
          "internalType": "address",
          "name": "token",
          "type": "address"
        }
      ],
      "name": "UnrecoverableToken",
      "type": "error"
    },
    {
      "anonymous": false,
      "inputs": [
        {
          "indexed": true,
          "internalType": "address",
          "name": "owner",
          "type": "address"
        },
        {
          "indexed": true,
          "internalType": "address",
          "name": "approved",
          "type": "address"
        },
        {
          "indexed": true,
          "internalType": "uint256",
          "name": "tokenId",
          "type": "uint256"
        }
      ],
      "name": "Approval",
      "type": "event"
    },
    {
      "anonymous": false,
      "inputs": [
        {
          "indexed": true,
          "internalType": "address",
          "name": "owner",
          "type": "address"
        },
        {
          "indexed": true,
          "internalType": "address",
          "name": "operator",
          "type": "address"
        },
        {
          "indexed": false,
          "internalType": "bool",
          "name": "approved",
          "type": "bool"
        }
      ],
      "name": "ApprovalForAll",
      "type": "event"
    },
    {
      "anonymous": false,
      "inputs": [
        {
          "indexed": true,
          "internalType": "bytes32",
          "name": "role",
          "type": "bytes32"
        },
        {
          "indexed": true,
          "internalType": "bytes32",
          "name": "previousAdminRole",
          "type": "bytes32"
        },
        {
          "indexed": true,
          "internalType": "bytes32",
          "name": "newAdminRole",
          "type": "bytes32"
        }
      ],
      "name": "RoleAdminChanged",
      "type": "event"
    },
    {
      "anonymous": false,
      "inputs": [
        {
          "indexed": true,
          "internalType": "bytes32",
          "name": "role",
          "type": "bytes32"
        },
        {
          "indexed": true,
          "internalType": "address",
          "name": "account",
          "type": "address"
        },
        {
          "indexed": true,
          "internalType": "address",
          "name": "sender",
          "type": "address"
        }
      ],
      "name": "RoleGranted",
      "type": "event"
    },
    {
      "anonymous": false,
      "inputs": [
        {
          "indexed": true,
          "internalType": "bytes32",
          "name": "role",
          "type": "bytes32"
        },
        {
          "indexed": true,
          "internalType": "address",
          "name": "account",
          "type": "address"
        },
        {
          "indexed": true,
          "internalType": "address",
          "name": "sender",
          "type": "address"
        }
      ],
      "name": "RoleRevoked",
      "type": "event"
    },
    {
      "anonymous": false,
      "inputs": [
        {
          "indexed": true,
          "internalType": "address",
          "name": "from",
          "type": "address"
        },
        {
          "indexed": true,
          "internalType": "address",
          "name": "to",
          "type": "address"
        },
        {
          "indexed": true,
          "internalType": "uint256",
          "name": "tokenId",
          "type": "uint256"
        }
      ],
      "name": "Transfer",
      "type": "event"
    },
    {
      "anonymous": false,
      "inputs": [
        {
          "indexed": false,
          "internalType": "string",
          "name": "updatedBaseUri",
          "type": "string"
        }
      ],
      "name": "UpdateBaseUri",
      "type": "event"
    },
    {
      "anonymous": false,
      "inputs": [
        {
          "indexed": false,
          "internalType": "uint256",
          "name": "durationSeconds",
          "type": "uint256"
        }
      ],
      "name": "UpdateGhostlistDuration",
      "type": "event"
    },
    {
      "anonymous": false,
      "inputs": [
        {
          "indexed": false,
          "internalType": "bytes32",
          "name": "root",
          "type": "bytes32"
        }
      ],
      "name": "UpdateGhostlistRoot",
      "type": "event"
    },
    {
      "anonymous": false,
      "inputs": [
        {
          "indexed": false,
          "internalType": "uint256",
          "name": "startTime",
          "type": "uint256"
        }
      ],
      "name": "UpdateMintStart",
      "type": "event"
    },
    {
      "inputs": [],
      "name": "DEFAULT_ADMIN_ROLE",
      "outputs": [
        {
          "internalType": "bytes32",
          "name": "",
          "type": "bytes32"
        }
      ],
      "stateMutability": "view",
      "type": "function"
    },
    {
      "inputs": [],
      "name": "DOMAIN_SETTER_ROLE",
      "outputs": [
        {
          "internalType": "bytes32",
          "name": "",
          "type": "bytes32"
        }
      ],
      "stateMutability": "view",
      "type": "function"
    },
    {
      "inputs": [],
      "name": "LIST_SETTER_ROLE",
      "outputs": [
        {
          "internalType": "bytes32",
          "name": "",
          "type": "bytes32"
        }
      ],
      "stateMutability": "view",
      "type": "function"
    },
    {
      "inputs": [],
      "name": "MANAGER_ROLE",
      "outputs": [
        {
          "internalType": "bytes32",
          "name": "",
          "type": "bytes32"
        }
      ],
      "stateMutability": "view",
      "type": "function"
    },
    {
      "inputs": [],
      "name": "OPERATOR_FILTER_REGISTRY",
      "outputs": [
        {
          "internalType": "contract IOperatorFilterRegistry",
          "name": "",
          "type": "address"
        }
      ],
      "stateMutability": "view",
      "type": "function"
    },
    {
      "inputs": [
        {
          "internalType": "address",
          "name": "operator",
          "type": "address"
        },
        {
          "internalType": "uint256",
          "name": "tokenId",
          "type": "uint256"
        }
      ],
      "name": "approve",
      "outputs": [],
      "stateMutability": "nonpayable",
      "type": "function"
    },
    {
      "inputs": [
        {
          "internalType": "address",
          "name": "owner",
          "type": "address"
        }
      ],
      "name": "balanceOf",
      "outputs": [
        {
          "internalType": "uint256",
          "name": "",
          "type": "uint256"
        }
      ],
      "stateMutability": "view",
      "type": "function"
    },
    {
      "inputs": [],
      "name": "baseUri",
      "outputs": [
        {
          "internalType": "string",
          "name": "",
          "type": "string"
        }
      ],
      "stateMutability": "view",
      "type": "function"
    },
    {
      "inputs": [],
      "name": "cap",
      "outputs": [
        {
          "internalType": "uint256",
          "name": "",
          "type": "uint256"
        }
      ],
      "stateMutability": "view",
      "type": "function"
    },
    {
      "inputs": [
        {
          "internalType": "uint256",
          "name": "tokenId",
          "type": "uint256"
        }
      ],
      "name": "getApproved",
      "outputs": [
        {
          "internalType": "address",
          "name": "",
          "type": "address"
        }
      ],
      "stateMutability": "view",
      "type": "function"
    },
    {
      "inputs": [
        {
          "internalType": "bytes32",
          "name": "role",
          "type": "bytes32"
        }
      ],
      "name": "getRoleAdmin",
      "outputs": [
        {
          "internalType": "bytes32",
          "name": "",
          "type": "bytes32"
        }
      ],
      "stateMutability": "view",
      "type": "function"
    },
    {
      "inputs": [],
      "name": "ghostlistDuration",
      "outputs": [
        {
          "internalType": "uint256",
          "name": "",
          "type": "uint256"
        }
      ],
      "stateMutability": "view",
      "type": "function"
    },
    {
      "inputs": [],
      "name": "ghostlistRoot",
      "outputs": [
        {
          "internalType": "bytes32",
          "name": "",
          "type": "bytes32"
        }
      ],
      "stateMutability": "view",
      "type": "function"
    },
    {
      "inputs": [
        {
          "internalType": "bytes32",
          "name": "role",
          "type": "bytes32"
        },
        {
          "internalType": "address",
          "name": "account",
          "type": "address"
        }
      ],
      "name": "grantRole",
      "outputs": [],
      "stateMutability": "nonpayable",
      "type": "function"
    },
    {
      "inputs": [
        {
          "internalType": "bytes32",
          "name": "role",
          "type": "bytes32"
        },
        {
          "internalType": "address",
          "name": "account",
          "type": "address"
        }
      ],
      "name": "hasRole",
      "outputs": [
        {
          "internalType": "bool",
          "name": "",
          "type": "bool"
        }
      ],
      "stateMutability": "view",
      "type": "function"
    },
    {
      "inputs": [
        {
          "internalType": "address",
          "name": "owner",
          "type": "address"
        },
        {
          "internalType": "address",
          "name": "operator",
          "type": "address"
        }
      ],
      "name": "isApprovedForAll",
      "outputs": [
        {
          "internalType": "bool",
          "name": "",
          "type": "bool"
        }
      ],
      "stateMutability": "view",
      "type": "function"
    },
    {
      "inputs": [
        {
          "internalType": "address",
          "name": "account",
          "type": "address"
        },
        {
          "internalType": "bytes32[]",
          "name": "proof",
          "type": "bytes32[]"
        }
      ],
      "name": "isGhostlisted",
      "outputs": [
        {
          "internalType": "bool",
          "name": "",
          "type": "bool"
        }
      ],
      "stateMutability": "view",
      "type": "function"
    },
    {
      "inputs": [
        {
          "internalType": "bytes32[]",
          "name": "proof",
          "type": "bytes32[]"
        }
      ],
      "name": "mint",
      "outputs": [],
      "stateMutability": "payable",
      "type": "function"
    },
    {
      "inputs": [],
      "name": "mintPrice",
      "outputs": [
        {
          "internalType": "uint256",
          "name": "",
          "type": "uint256"
        }
      ],
      "stateMutability": "view",
      "type": "function"
    },
    {
      "inputs": [],
      "name": "mintStart",
      "outputs": [
        {
          "internalType": "uint256",
          "name": "",
          "type": "uint256"
        }
      ],
      "stateMutability": "view",
      "type": "function"
    },
    {
      "inputs": [
        {
          "internalType": "address",
          "name": "",
          "type": "address"
        }
      ],
      "name": "minterTokenId",
      "outputs": [
        {
          "internalType": "uint256",
          "name": "",
          "type": "uint256"
        }
      ],
      "stateMutability": "view",
      "type": "function"
    },
    {
      "inputs": [
        {
          "internalType": "bytes[]",
          "name": "data",
          "type": "bytes[]"
        }
      ],
      "name": "multicall",
      "outputs": [
        {
          "internalType": "bytes[]",
          "name": "results",
          "type": "bytes[]"
        }
      ],
      "stateMutability": "nonpayable",
      "type": "function"
    },
    {
      "inputs": [],
      "name": "name",
      "outputs": [
        {
          "internalType": "string",
          "name": "",
          "type": "string"
        }
      ],
      "stateMutability": "view",
      "type": "function"
    },
    {
      "inputs": [
        {
          "internalType": "uint256",
          "name": "tokenId",
          "type": "uint256"
        }
      ],
      "name": "ownerOf",
      "outputs": [
        {
          "internalType": "address",
          "name": "",
          "type": "address"
        }
      ],
      "stateMutability": "view",
      "type": "function"
    },
    {
      "inputs": [],
      "name": "placeholderTokenUri",
      "outputs": [
        {
          "internalType": "string",
          "name": "",
          "type": "string"
        }
      ],
      "stateMutability": "view",
      "type": "function"
    },
    {
      "inputs": [
        {
          "internalType": "address",
          "name": "tokenId",
          "type": "address"
        },
        {
          "internalType": "address",
          "name": "recipient",
          "type": "address"
        },
        {
          "internalType": "uint256",
          "name": "amount",
          "type": "uint256"
        }
      ],
      "name": "recoverERC20",
      "outputs": [],
      "stateMutability": "nonpayable",
      "type": "function"
    },
    {
      "inputs": [
        {
          "internalType": "bytes32",
          "name": "role",
          "type": "bytes32"
        },
        {
          "internalType": "address",
          "name": "account",
          "type": "address"
        }
      ],
      "name": "renounceRole",
      "outputs": [],
      "stateMutability": "nonpayable",
      "type": "function"
    },
    {
      "inputs": [],
      "name": "reserved",
      "outputs": [
        {
          "internalType": "uint256",
          "name": "",
          "type": "uint256"
        }
      ],
      "stateMutability": "view",
      "type": "function"
    },
    {
      "inputs": [
        {
          "internalType": "bytes32",
          "name": "role",
          "type": "bytes32"
        },
        {
          "internalType": "address",
          "name": "account",
          "type": "address"
        }
      ],
      "name": "revokeRole",
      "outputs": [],
      "stateMutability": "nonpayable",
      "type": "function"
    },
    {
      "inputs": [
        {
          "internalType": "address",
          "name": "from",
          "type": "address"
        },
        {
          "internalType": "address",
          "name": "to",
          "type": "address"
        },
        {
          "internalType": "uint256",
          "name": "tokenId",
          "type": "uint256"
        }
      ],
      "name": "safeTransferFrom",
      "outputs": [],
      "stateMutability": "nonpayable",
      "type": "function"
    },
    {
      "inputs": [
        {
          "internalType": "address",
          "name": "from",
          "type": "address"
        },
        {
          "internalType": "address",
          "name": "to",
          "type": "address"
        },
        {
          "internalType": "uint256",
          "name": "tokenId",
          "type": "uint256"
        },
        {
          "internalType": "bytes",
          "name": "data",
          "type": "bytes"
        }
      ],
      "name": "safeTransferFrom",
      "outputs": [],
      "stateMutability": "nonpayable",
      "type": "function"
    },
    {
      "inputs": [
        {
          "internalType": "address",
          "name": "operator",
          "type": "address"
        },
        {
          "internalType": "bool",
          "name": "approved",
          "type": "bool"
        }
      ],
      "name": "setApprovalForAll",
      "outputs": [],
      "stateMutability": "nonpayable",
      "type": "function"
    },
    {
      "inputs": [
        {
          "internalType": "string",
          "name": "_baseUri",
          "type": "string"
        }
      ],
      "name": "setBaseURI",
      "outputs": [],
      "stateMutability": "nonpayable",
      "type": "function"
    },
    {
      "inputs": [
        {
          "internalType": "uint256",
          "name": "_ghostlistDuration",
          "type": "uint256"
        }
      ],
      "name": "setGhostlistDuration",
      "outputs": [],
      "stateMutability": "nonpayable",
      "type": "function"
    },
    {
      "inputs": [
        {
          "internalType": "bytes32",
          "name": "_ghostlistRoot",
          "type": "bytes32"
        }
      ],
      "name": "setGhostlistRoot",
      "outputs": [],
      "stateMutability": "nonpayable",
      "type": "function"
    },
    {
      "inputs": [
        {
          "internalType": "uint256",
          "name": "_mintStart",
          "type": "uint256"
        }
      ],
      "name": "setMintStart",
      "outputs": [],
      "stateMutability": "nonpayable",
      "type": "function"
    },
    {
      "inputs": [
        {
          "internalType": "bytes4",
          "name": "interfaceId",
          "type": "bytes4"
        }
      ],
      "name": "supportsInterface",
      "outputs": [
        {
          "internalType": "bool",
          "name": "",
          "type": "bool"
        }
      ],
      "stateMutability": "view",
      "type": "function"
    },
    {
      "inputs": [],
      "name": "symbol",
      "outputs": [
        {
          "internalType": "string",
          "name": "",
          "type": "string"
        }
      ],
      "stateMutability": "view",
      "type": "function"
    },
    {
      "inputs": [
        {
          "internalType": "uint256",
          "name": "index",
          "type": "uint256"
        }
      ],
      "name": "tokenByIndex",
      "outputs": [
        {
          "internalType": "uint256",
          "name": "",
          "type": "uint256"
        }
      ],
      "stateMutability": "view",
      "type": "function"
    },
    {
      "inputs": [
        {
          "internalType": "address",
          "name": "owner",
          "type": "address"
        },
        {
          "internalType": "uint256",
          "name": "index",
          "type": "uint256"
        }
      ],
      "name": "tokenOfOwnerByIndex",
      "outputs": [
        {
          "internalType": "uint256",
          "name": "",
          "type": "uint256"
        }
      ],
      "stateMutability": "view",
      "type": "function"
    },
    {
      "inputs": [
        {
          "internalType": "uint256",
          "name": "tokenId",
          "type": "uint256"
        }
      ],
      "name": "tokenURI",
      "outputs": [
        {
          "internalType": "string",
          "name": "",
          "type": "string"
        }
      ],
      "stateMutability": "view",
      "type": "function"
    },
    {
      "inputs": [],
      "name": "totalSupply",
      "outputs": [
        {
          "internalType": "uint256",
          "name": "",
          "type": "uint256"
        }
      ],
      "stateMutability": "view",
      "type": "function"
    },
    {
      "inputs": [
        {
          "internalType": "address",
          "name": "from",
          "type": "address"
        },
        {
          "internalType": "address",
          "name": "to",
          "type": "address"
        },
        {
          "internalType": "uint256",
          "name": "tokenId",
          "type": "uint256"
        }
      ],
      "name": "transferFrom",
      "outputs": [],
      "stateMutability": "nonpayable",
      "type": "function"
    },
    {
      "inputs": [],
      "name": "withdraw",
      "outputs": [],
      "stateMutability": "nonpayable",
      "type": "function"
    },
    {
      "stateMutability": "payable",
      "type": "receive"
    }
  ],
  "bytecode": "0x60a060405262015180600c556000801b600d5560405180602001604052806000815250600e9081620000329190620014be565b503480156200004057600080fd5b506040516200879b3803806200879b8339818101604052810190620000669190620017b7565b6040518060400160405280600981526020017f47686f737420426f7900000000000000000000000000000000000000000000008152506040518060400160405280600581526020017f47484f53540000000000000000000000000000000000000000000000000000008152508181733cc6cdda760b79bafa08df41ecfa224f810dceb6600160006daaeb6d7670e522a718067333cd4e73ffffffffffffffffffffffffffffffffffffffff163b1115620002e0578015620001a6576daaeb6d7670e522a718067333cd4e73ffffffffffffffffffffffffffffffffffffffff16637d3e3dbe30846040518363ffffffff1660e01b81526004016200016c92919062001843565b600060405180830381600087803b1580156200018757600080fd5b505af11580156200019c573d6000803e3d6000fd5b50505050620002df565b600073ffffffffffffffffffffffffffffffffffffffff168273ffffffffffffffffffffffffffffffffffffffff161462000260576daaeb6d7670e522a718067333cd4e73ffffffffffffffffffffffffffffffffffffffff1663a0af290330846040518363ffffffff1660e01b81526004016200022692919062001843565b600060405180830381600087803b1580156200024157600080fd5b505af115801562000256573d6000803e3d6000fd5b50505050620002de565b6daaeb6d7670e522a718067333cd4e73ffffffffffffffffffffffffffffffffffffffff16634420e486306040518263ffffffff1660e01b8152600401620002a9919062001870565b600060405180830381600087803b158015620002c457600080fd5b505af1158015620002d9573d6000803e3d6000fd5b505050505b5b5b50508160009081620002f39190620014be565b508060019081620003059190620014be565b505050620003246775dca55187a2296b60c01b6200060760201b60201c565b50506200034267271da583f080820360c01b6200060a60201b60201c565b6200035e67494e8324e24593fa60c01b6200060a60201b60201c565b6200037a672d4873dddc621c6860c01b6200060a60201b60201c565b6200038f6000801b846200060d60201b60201c565b620003ab67d0bf2f56d21fe79460c01b6200060a60201b60201c565b620003c767a6884b65b4e2cf9660c01b6200060a60201b60201c565b620003f97f241ecf16d79d0f8dbfb92cbc07fe17840425976cf0667f022fe9877caa831b08846200060d60201b60201c565b62000415677351a1168e689b8f60c01b6200060a60201b60201c565b62000431676c4c42db6ba3186a60c01b6200060a60201b60201c565b620004637f33ced24247734ac36f5eccd70a678ac20efc99a63f7ae972c9394528cc9df85d846200060d60201b60201c565b6200047f679fd717548039583460c01b6200060a60201b60201c565b6200049b67a8829e0b329ad95260c01b6200060a60201b60201c565b620004dc7f33ced24247734ac36f5eccd70a678ac20efc99a63f7ae972c9394528cc9df85d620004d0620006ff60201b60201c565b6200060d60201b60201c565b620004f867cc720208f0c69a1460c01b6200060a60201b60201c565b6200051467952ada655dfadca360c01b6200060a60201b60201c565b620005557f50358d54033371cd7c49ce476a9d4c06dff7774afe05888d4a22b287e1bfe7f462000549620006ff60201b60201c565b6200060d60201b60201c565b6200057167d2885026c5bdcfac60c01b6200060a60201b60201c565b80600f9081620005829190620014be565b506200059f6756949ecf4520830360c01b6200060a60201b60201c565b816bffffffffffffffffffffffff1660808181525050620005d167286fb5c63167d32d60c01b6200060a60201b60201c565b620005ed67b0c36ca626c4be6060c01b6200060a60201b60201c565b620005fe836200070760201b60201c565b50505062001c02565b50565b50565b6200061f8282620007eb60201b60201c565b620006fb576001600a600084815260200190815260200160002060000160008373ffffffffffffffffffffffffffffffffffffffff1673ffffffffffffffffffffffffffffffffffffffff16815260200190815260200160002060006101000a81548160ff021916908315150217905550620006a0620006ff60201b60201c565b73ffffffffffffffffffffffffffffffffffffffff168173ffffffffffffffffffffffffffffffffffffffff16837f2f8788117e7eff1d82e926ec794901d17c78024a50270940304540a733656f0d60405160405180910390a45b5050565b600033905090565b62000723673fb4873e49a5f6e960c01b6200060a60201b60201c565b6200073f67040a7248da4d1c3660c01b6200060a60201b60201c565b6200075b67ac4e40fb017c0b8260c01b6200060a60201b60201c565b6000600190506200077d67a6d2f96456c258c860c01b6200060a60201b60201c565b6200079967a700ce5a18b89fb360c01b6200060a60201b60201c565b60006080519050620007bc67aca2d0cc134f01af60c01b6200060a60201b60201c565b5b620007cf83836200085660201b60201c565b81620007db90620018bc565b915080821115620007bd57505050565b6000600a600084815260200190815260200160002060000160008373ffffffffffffffffffffffffffffffffffffffff1673ffffffffffffffffffffffffffffffffffffffff16815260200190815260200160002060009054906101000a900460ff16905092915050565b600073ffffffffffffffffffffffffffffffffffffffff168273ffffffffffffffffffffffffffffffffffffffff1603620008c8576040517f08c379a0000000000000000000000000000000000000000000000000000000008152600401620008bf906200196a565b60405180910390fd5b620008d98162000a9c60201b60201c565b156200091c576040517f08c379a00000000000000000000000000000000000000000000000000000000081526004016200091390620019dc565b60405180910390fd5b6200093260008383600162000ae560201b60201c565b620009438162000a9c60201b60201c565b1562000986576040517f08c379a00000000000000000000000000000000000000000000000000000000081526004016200097d90620019dc565b60405180910390fd5b6001600360008473ffffffffffffffffffffffffffffffffffffffff1673ffffffffffffffffffffffffffffffffffffffff16815260200190815260200160002060008282540192505081905550816002600083815260200190815260200160002060006101000a81548173ffffffffffffffffffffffffffffffffffffffff021916908373ffffffffffffffffffffffffffffffffffffffff160217905550808273ffffffffffffffffffffffffffffffffffffffff16600073ffffffffffffffffffffffffffffffffffffffff167fddf252ad1be2c89b69c2b068fc378daa952ba7f163c4a11628f55a4df523b3ef60405160405180910390a462000a9860008383600162000b5860201b60201c565b5050565b60008073ffffffffffffffffffffffffffffffffffffffff1662000ac68362000b5e60201b60201c565b73ffffffffffffffffffffffffffffffffffffffff1614159050919050565b62000b016741d73921afd5847660c01b6200060760201b60201c565b62000b1d674130f767ee77d3aa60c01b6200060760201b60201c565b62000b3967c49a112ae79b17e860c01b6200060760201b60201c565b62000b528484848462000b9b60201b620025fb1760201c565b50505050565b50505050565b60006002600083815260200190815260200160002060009054906101000a900473ffffffffffffffffffffffffffffffffffffffff169050919050565b62000bb48484848462000d2f60201b620027591760201c565b600181111562000bfb576040517f08c379a000000000000000000000000000000000000000000000000000000000815260040162000bf29062001a74565b60405180910390fd5b6000829050600073ffffffffffffffffffffffffffffffffffffffff168573ffffffffffffffffffffffffffffffffffffffff160362000c4c5762000c468162000e5c60201b60201c565b62000c94565b8373ffffffffffffffffffffffffffffffffffffffff168573ffffffffffffffffffffffffffffffffffffffff161462000c935762000c92858262000ea560201b60201c565b5b5b600073ffffffffffffffffffffffffffffffffffffffff168473ffffffffffffffffffffffffffffffffffffffff160362000ce05762000cda816200102260201b60201c565b62000d28565b8473ffffffffffffffffffffffffffffffffffffffff168473ffffffffffffffffffffffffffffffffffffffff161462000d275762000d268482620010fe60201b60201c565b5b5b5050505050565b600181111562000e5657600073ffffffffffffffffffffffffffffffffffffffff168473ffffffffffffffffffffffffffffffffffffffff161462000dc75780600360008673ffffffffffffffffffffffffffffffffffffffff1673ffffffffffffffffffffffffffffffffffffffff168152602001908152602001600020600082825462000dbf919062001a96565b925050819055505b600073ffffffffffffffffffffffffffffffffffffffff168373ffffffffffffffffffffffffffffffffffffffff161462000e555780600360008573ffffffffffffffffffffffffffffffffffffffff1673ffffffffffffffffffffffffffffffffffffffff168152602001908152602001600020600082825462000e4d919062001ad1565b925050819055505b5b50505050565b6008805490506009600083815260200190815260200160002081905550600881908060018154018082558091505060019003906000526020600020016000909190919091505550565b6000600162000ebf846200118a60201b620015751760201c565b62000ecb919062001a96565b905060006007600084815260200190815260200160002054905081811462000fb1576000600660008673ffffffffffffffffffffffffffffffffffffffff1673ffffffffffffffffffffffffffffffffffffffff168152602001908152602001600020600084815260200190815260200160002054905080600660008773ffffffffffffffffffffffffffffffffffffffff1673ffffffffffffffffffffffffffffffffffffffff168152602001908152602001600020600084815260200190815260200160002081905550816007600083815260200190815260200160002081905550505b6007600084815260200190815260200160002060009055600660008573ffffffffffffffffffffffffffffffffffffffff1673ffffffffffffffffffffffffffffffffffffffff16815260200190815260200160002060008381526020019081526020016000206000905550505050565b6000600160088054905062001038919062001a96565b90506000600960008481526020019081526020016000205490506000600883815481106200106b576200106a62001b0c565b5b90600052602060002001549050806008838154811062001090576200108f62001b0c565b5b906000526020600020018190555081600960008381526020019081526020016000208190555060096000858152602001908152602001600020600090556008805480620010e257620010e162001b3b565b5b6001900381819060005260206000200160009055905550505050565b600062001116836200118a60201b620015751760201c565b905081600660008573ffffffffffffffffffffffffffffffffffffffff1673ffffffffffffffffffffffffffffffffffffffff168152602001908152602001600020600083815260200190815260200160002081905550806007600084815260200190815260200160002081905550505050565b60008073ffffffffffffffffffffffffffffffffffffffff168273ffffffffffffffffffffffffffffffffffffffff1603620011fd576040517f08c379a0000000000000000000000000000000000000000000000000000000008152600401620011f49062001be0565b60405180910390fd5b600360008373ffffffffffffffffffffffffffffffffffffffff1673ffffffffffffffffffffffffffffffffffffffff168152602001908152602001600020549050919050565b600081519050919050565b7f4e487b7100000000000000000000000000000000000000000000000000000000600052604160045260246000fd5b7f4e487b7100000000000000000000000000000000000000000000000000000000600052602260045260246000fd5b60006002820490506001821680620012c657607f821691505b602082108103620012dc57620012db6200127e565b5b50919050565b60008190508160005260206000209050919050565b60006020601f8301049050919050565b600082821b905092915050565b600060088302620013467fffffffffffffffffffffffffffffffffffffffffffffffffffffffffffffffff8262001307565b62001352868362001307565b95508019841693508086168417925050509392505050565b6000819050919050565b6000819050919050565b60006200139f6200139962001393846200136a565b62001374565b6200136a565b9050919050565b6000819050919050565b620013bb836200137e565b620013d3620013ca82620013a6565b84845462001314565b825550505050565b600090565b620013ea620013db565b620013f7818484620013b0565b505050565b5b818110156200141f5762001413600082620013e0565b600181019050620013fd565b5050565b601f8211156200146e576200143881620012e2565b6200144384620012f7565b8101602085101562001453578190505b6200146b6200146285620012f7565b830182620013fc565b50505b505050565b600082821c905092915050565b6000620014936000198460080262001473565b1980831691505092915050565b6000620014ae838362001480565b9150826002028217905092915050565b620014c98262001244565b67ffffffffffffffff811115620014e557620014e46200124f565b5b620014f18254620012ad565b620014fe82828562001423565b600060209050601f83116001811462001536576000841562001521578287015190505b6200152d8582620014a0565b8655506200159d565b601f1984166200154686620012e2565b60005b82811015620015705784890151825560018201915060208501945060208101905062001549565b868310156200159057848901516200158c601f89168262001480565b8355505b6001600288020188555050505b505050505050565b6000604051905090565b600080fd5b600080fd5b600073ffffffffffffffffffffffffffffffffffffffff82169050919050565b6000620015e682620015b9565b9050919050565b620015f881620015d9565b81146200160457600080fd5b50565b6000815190506200161881620015ed565b92915050565b60006bffffffffffffffffffffffff82169050919050565b62001641816200161e565b81146200164d57600080fd5b50565b600081519050620016618162001636565b92915050565b600080fd5b600080fd5b6000601f19601f8301169050919050565b6200168d8262001671565b810181811067ffffffffffffffff82111715620016af57620016ae6200124f565b5b80604052505050565b6000620016c4620015a5565b9050620016d2828262001682565b919050565b600067ffffffffffffffff821115620016f557620016f46200124f565b5b620017008262001671565b9050602081019050919050565b60005b838110156200172d57808201518184015260208101905062001710565b60008484015250505050565b6000620017506200174a84620016d7565b620016b8565b9050828152602081018484840111156200176f576200176e6200166c565b5b6200177c8482856200170d565b509392505050565b600082601f8301126200179c576200179b62001667565b5b8151620017ae84826020860162001739565b91505092915050565b600080600060608486031215620017d357620017d2620015af565b5b6000620017e38682870162001607565b9350506020620017f68682870162001650565b925050604084015167ffffffffffffffff8111156200181a5762001819620015b4565b5b620018288682870162001784565b9150509250925092565b6200183d81620015d9565b82525050565b60006040820190506200185a600083018562001832565b62001869602083018462001832565b9392505050565b600060208201905062001887600083018462001832565b92915050565b7f4e487b7100000000000000000000000000000000000000000000000000000000600052601160045260246000fd5b6000620018c9826200136a565b91507fffffffffffffffffffffffffffffffffffffffffffffffffffffffffffffffff8203620018fe57620018fd6200188d565b5b600182019050919050565b600082825260208201905092915050565b7f4552433732313a206d696e7420746f20746865207a65726f2061646472657373600082015250565b60006200195260208362001909565b91506200195f826200191a565b602082019050919050565b60006020820190508181036000830152620019858162001943565b9050919050565b7f4552433732313a20746f6b656e20616c7265616479206d696e74656400000000600082015250565b6000620019c4601c8362001909565b9150620019d1826200198c565b602082019050919050565b60006020820190508181036000830152620019f781620019b5565b9050919050565b7f455243373231456e756d657261626c653a20636f6e736563757469766520747260008201527f616e7366657273206e6f7420737570706f727465640000000000000000000000602082015250565b600062001a5c60358362001909565b915062001a6982620019fe565b604082019050919050565b6000602082019050818103600083015262001a8f8162001a4d565b9050919050565b600062001aa3826200136a565b915062001ab0836200136a565b925082820390508181111562001acb5762001aca6200188d565b5b92915050565b600062001ade826200136a565b915062001aeb836200136a565b925082820190508082111562001b065762001b056200188d565b5b92915050565b7f4e487b7100000000000000000000000000000000000000000000000000000000600052603260045260246000fd5b7f4e487b7100000000000000000000000000000000000000000000000000000000600052603160045260246000fd5b7f4552433732313a2061646472657373207a65726f206973206e6f74206120766160008201527f6c6964206f776e65720000000000000000000000000000000000000000000000602082015250565b600062001bc860298362001909565b915062001bd58262001b6a565b604082019050919050565b6000602082019050818103600083015262001bfb8162001bb9565b9050919050565b608051616b7d62001c1e60003960006125d90152616b7d6000f3fe6080604052600436106102eb5760003560e01c806363eae6e411610184578063a22cb465116100d6578063c87b56dd1161008a578063ec87621c11610064578063ec87621c14610a87578063ecdd78ae14610ab2578063fe60d12c14610add576102f2565b8063c87b56dd146109e4578063d547741f14610a21578063e985e9c514610a4a576102f2565b8063b2549439116100bb578063b254943914610974578063b77a147b1461099f578063b88d4fde146109bb576102f2565b8063a22cb4651461090e578063ac9650d814610937576102f2565b8063759bfd931161013857806395d89b411161011257806395d89b411461088d5780639abc8320146108b8578063a217fddf146108e3576102f2565b8063759bfd93146107fe5780637960c27f1461082757806391d1485414610850576102f2565b80636817c76c116101695780636817c76c1461075957806370a08231146107845780637229c618146107c1576102f2565b806363eae6e4146107055780636556683314610730576102f2565b80632f745c591161023d57806342842e0e116101f15780634f6ccce7116101cb5780634f6ccce71461066257806355f804b31461069f5780636352211e146106c8576102f2565b806342842e0e146105e35780634cf5f7a41461060c5780634ed67f8114610637576102f2565b806336568abe1161022257806336568abe146105785780633ccfd60b146105a157806341f43434146105b8576102f2565b80632f745c5914610510578063355274ea1461054d576102f2565b806318160ddd1161029f578063255e468511610279578063255e46851461047f57806326f5608b146104aa5780632f2ff15d146104e7576102f2565b806318160ddd146103ee57806323b872dd14610419578063248a9ca314610442576102f2565b8063081812fc116102d0578063081812fc1461035f578063095ea7b31461039c5780631171bda9146103c5576102f2565b806301ffc9a7146102f757806306fdde0314610334576102f2565b366102f257005b600080fd5b34801561030357600080fd5b5061031e60048036038101906103199190614bf8565b610b08565b60405161032b9190614c40565b60405180910390f35b34801561034057600080fd5b50610349610b56565b6040516103569190614ceb565b60405180910390f35b34801561036b57600080fd5b5061038660048036038101906103819190614d43565b610be8565b6040516103939190614db1565b60405180910390f35b3480156103a857600080fd5b506103c360048036038101906103be9190614df8565b610c2e565b005b3480156103d157600080fd5b506103ec60048036038101906103e79190614e38565b610cab565b005b3480156103fa57600080fd5b50610403610d4a565b6040516104109190614e9a565b60405180910390f35b34801561042557600080fd5b50610440600480360381019061043b9190614e38565b610d57565b005b34801561044e57600080fd5b5061046960048036038101906104649190614eeb565b610e0a565b6040516104769190614f27565b60405180910390f35b34801561048b57600080fd5b50610494610e2a565b6040516104a19190614e9a565b60405180910390f35b3480156104b657600080fd5b506104d160048036038101906104cc9190614fa7565b610e30565b6040516104de9190614c40565b60405180910390f35b3480156104f357600080fd5b5061050e60048036038101906105099190615007565b610ef5565b005b34801561051c57600080fd5b5061053760048036038101906105329190614df8565b610f16565b6040516105449190614e9a565b60405180910390f35b34801561055957600080fd5b50610562610fbb565b60405161056f9190614e9a565b60405180910390f35b34801561058457600080fd5b5061059f600480360381019061059a9190615007565b610fc1565b005b3480156105ad57600080fd5b506105b6611044565b005b3480156105c457600080fd5b506105cd6110fe565b6040516105da91906150a6565b60405180910390f35b3480156105ef57600080fd5b5061060a60048036038101906106059190614e38565b611110565b005b34801561061857600080fd5b506106216111c3565b60405161062e9190614ceb565b60405180910390f35b34801561064357600080fd5b5061064c611251565b6040516106599190614e9a565b60405180910390f35b34801561066e57600080fd5b5061068960048036038101906106849190614d43565b611257565b6040516106969190614e9a565b60405180910390f35b3480156106ab57600080fd5b506106c660048036038101906106c191906151f1565b6112c8565b005b3480156106d457600080fd5b506106ef60048036038101906106ea9190614d43565b611356565b6040516106fc9190614db1565b60405180910390f35b34801561071157600080fd5b5061071a6113dc565b6040516107279190614f27565b60405180910390f35b34801561073c57600080fd5b5061075760048036038101906107529190614eeb565b611400565b005b34801561076557600080fd5b5061076e61156a565b60405161077b9190614e9a565b60405180910390f35b34801561079057600080fd5b506107ab60048036038101906107a6919061523a565b611575565b6040516107b89190614e9a565b60405180910390f35b3480156107cd57600080fd5b506107e860048036038101906107e3919061523a565b61162c565b6040516107f59190614e9a565b60405180910390f35b34801561080a57600080fd5b5061082560048036038101906108209190614d43565b611644565b005b34801561083357600080fd5b5061084e60048036038101906108499190614d43565b6117af565b005b34801561085c57600080fd5b5061087760048036038101906108729190615007565b61191a565b6040516108849190614c40565b60405180910390f35b34801561089957600080fd5b506108a2611985565b6040516108af9190614ceb565b60405180910390f35b3480156108c457600080fd5b506108cd611a17565b6040516108da9190614ceb565b60405180910390f35b3480156108ef57600080fd5b506108f8611aa5565b6040516109059190614f27565b60405180910390f35b34801561091a57600080fd5b5061093560048036038101906109309190615293565b611aac565b005b34801561094357600080fd5b5061095e60048036038101906109599190615329565b611b29565b60405161096b919061548d565b60405180910390f35b34801561098057600080fd5b50610989611c35565b6040516109969190614f27565b60405180910390f35b6109b960048036038101906109b491906154af565b611c3b565b005b3480156109c757600080fd5b506109e260048036038101906109dd919061559d565b612274565b005b3480156109f057600080fd5b50610a0b6004803603810190610a069190614d43565b612329565b604051610a189190614ceb565b60405180910390f35b348015610a2d57600080fd5b50610a486004803603810190610a439190615007565b6124da565b005b348015610a5657600080fd5b50610a716004803603810190610a6c9190615620565b6124fb565b604051610a7e9190614c40565b60405180910390f35b348015610a9357600080fd5b50610a9c61258f565b604051610aa99190614f27565b60405180910390f35b348015610abe57600080fd5b50610ac76125b3565b604051610ad49190614f27565b60405180910390f35b348015610ae957600080fd5b50610af26125d7565b604051610aff9190614e9a565b60405180910390f35b6000610b1e6731b813d356ca9fbd60c01b61287f565b610b3267cf772c227ce4a72b60c01b61287f565b610b46679184210d9f4c99c260c01b61287f565b610b4f82612882565b9050919050565b606060008054610b659061568f565b80601f0160208091040260200160405190810160405280929190818152602001828054610b919061568f565b8015610bde5780601f10610bb357610100808354040283529160200191610bde565b820191906000526020600020905b815481529060010190602001808311610bc157829003601f168201915b5050505050905090565b6000610bf3826128d0565b6004600083815260200190815260200160002060009054906101000a900473ffffffffffffffffffffffffffffffffffffffff169050919050565b610c4267017bf1d3852aba0260c01b61291b565b81610c4c8161291e565b610c6067e4c3b26853e73cd360c01b61291b565b610c74678938673a5259a61460c01b61291b565b610c88679e80fbec8300b5f760c01b61291b565b610c9c678d91a23a7d2b9b2960c01b61291b565b610ca68383612a1b565b505050565b610cbf67b9f1e30aab85178560c01b612b32565b7f241ecf16d79d0f8dbfb92cbc07fe17840425976cf0667f022fe9877caa831b08610ce981612b35565b610cfd674c3ec697ce6ab0e560c01b612b32565b610d1167556a8351cfb38a8d60c01b612b32565b610d25674da97da154130ab360c01b612b32565b610d39675c83579260fdef7660c01b612b32565b610d44848484612b49565b50505050565b6000600880549050905090565b610d6b67ef742dea0ca3567a60c01b61291b565b823373ffffffffffffffffffffffffffffffffffffffff168173ffffffffffffffffffffffffffffffffffffffff1614610da957610da83361291e565b5b610dbd67bcda0c8356ea057160c01b61291b565b610dd167c191f12655652d3e60c01b61291b565b610de56701b0337db56be14e60c01b61291b565b610df967b4199b6fe7833af160c01b61291b565b610e04848484612c7f565b50505050565b6000600a6000838152602001908152602001600020600101549050919050565b600b5481565b6000610e46672175a5f5e71d8c1c60c01b61287f565b610e5a6707e245e60a13090a60c01b61287f565b610e6e676d5a6796ab50b27160c01b61287f565b610eec600d5485604051602001610e859190615708565b60405160208183030381529060405280519060200120858580806020026020016040519081016040528093929190818152602001838360200280828437600081840152601f19601f82011690508083019250505050505050612cdf9092919063ffffffff16565b90509392505050565b610efe82610e0a565b610f0781612b35565b610f118383612cf6565b505050565b6000610f2183611575565b8210610f62576040517f08c379a0000000000000000000000000000000000000000000000000000000008152600401610f5990615795565b60405180910390fd5b600660008473ffffffffffffffffffffffffffffffffffffffff1673ffffffffffffffffffffffffffffffffffffffff168152602001908152602001600020600083815260200190815260200160002054905092915050565b611a0a81565b610fc9612dd7565b73ffffffffffffffffffffffffffffffffffffffff168173ffffffffffffffffffffffffffffffffffffffff1614611036576040517f08c379a000000000000000000000000000000000000000000000000000000000815260040161102d90615827565b60405180910390fd5b6110408282612ddf565b5050565b611058677bab080ee8182de560c01b612b32565b7f241ecf16d79d0f8dbfb92cbc07fe17840425976cf0667f022fe9877caa831b0861108281612b35565b61109667659164d0d952000e60c01b612b32565b6110aa67855bcfdb65b8c24060c01b612b32565b6110be679702ac6a889f230b60c01b612b32565b6110d267da2744aeb1c0091f60c01b612b32565b6110fb473373ffffffffffffffffffffffffffffffffffffffff16612ec190919063ffffffff16565b50565b6daaeb6d7670e522a718067333cd4e81565b61112467c6bdfe20e9c2561860c01b61291b565b823373ffffffffffffffffffffffffffffffffffffffff168173ffffffffffffffffffffffffffffffffffffffff1614611162576111613361291e565b5b6111766787a62782d5f0812b60c01b61291b565b61118a671fbc4cd14f7c994a60c01b61291b565b61119e6779ead5ae26b3691360c01b61291b565b6111b267e6ef095c1fa5bc1960c01b61291b565b6111bd848484612fb5565b50505050565b600f80546111d09061568f565b80601f01602080910402602001604051908101604052809291908181526020018280546111fc9061568f565b80156112495780601f1061121e57610100808354040283529160200191611249565b820191906000526020600020905b81548152906001019060200180831161122c57829003601f168201915b505050505081565b600c5481565b6000611261610d4a565b82106112a2576040517f08c379a0000000000000000000000000000000000000000000000000000000008152600401611299906158b9565b60405180910390fd5b600882815481106112b6576112b56158d9565b5b90600052602060002001549050919050565b6112dc677c4d66931548ddb560c01b61287f565b7f33ced24247734ac36f5eccd70a678ac20efc99a63f7ae972c9394528cc9df85d61130681612b35565b61131a6741dd12976a203feb60c01b61287f565b61132e677064e884bb26beeb60c01b61287f565b6113426722419d0852d60ebc60c01b61287f565b81600e90816113519190615aaa565b505050565b60008061136283612fd5565b9050600073ffffffffffffffffffffffffffffffffffffffff168173ffffffffffffffffffffffffffffffffffffffff16036113d3576040517f08c379a00000000000000000000000000000000000000000000000000000000081526004016113ca90615bc8565b60405180910390fd5b80915050919050565b7f33ced24247734ac36f5eccd70a678ac20efc99a63f7ae972c9394528cc9df85d81565b611413668fbb0e08f175d160c01b612b32565b7f50358d54033371cd7c49ce476a9d4c06dff7774afe05888d4a22b287e1bfe7f461143d81612b35565b61145167849448e1730b749960c01b612b32565b611465672400e5b2049af75660c01b612b32565b6114796755e9a285ef90d04260c01b612b32565b61148d670fc31fff37f3760660c01b612b32565b81600d54036114d7576114aa6743ae4db8be53149d60c01b612b32565b6114be67839191db870680dd60c01b612b32565b6114d26711ca40aee9bbac6060c01b612b32565b611566565b6114eb6735b74f3a01908b9c60c01b612b32565b6114ff67d9b9c3f08191dfb560c01b612b32565b81600d8190555061151a671790cb2dc334775560c01b612b32565b61152e6774bcffc56ae87f5660c01b612b32565b7fed778ae4fa565f55887f852003015461a42158be913a1ba7f13d359f20c227bf8260405161155d9190614f27565b60405180910390a15b5050565b6658d15e1762800081565b60008073ffffffffffffffffffffffffffffffffffffffff168273ffffffffffffffffffffffffffffffffffffffff16036115e5576040517f08c379a00000000000000000000000000000000000000000000000000000000081526004016115dc90615c5a565b60405180910390fd5b600360008373ffffffffffffffffffffffffffffffffffffffff1673ffffffffffffffffffffffffffffffffffffffff168152602001908152602001600020549050919050565b60106020528060005260406000206000915090505481565b61165867f5e1a80d6312df5b60c01b612b32565b7f241ecf16d79d0f8dbfb92cbc07fe17840425976cf0667f022fe9877caa831b0861168281612b35565b611696677e6607639617252960c01b612b32565b6116aa673cc8683d8bede15460c01b612b32565b6116be67d513bc7ba54f06e060c01b612b32565b6116d267b8e70d378bbee06760c01b612b32565b81600c540361171c576116ef675da8842355c7b88860c01b612b32565b611703670bc058705c91254260c01b612b32565b611717673e0da93c2bb7894c60c01b612b32565b6117ab565b611730672a0c08919eccbaf860c01b612b32565b611744675eeb1a92d4e64b3260c01b612b32565b81600c8190555061175f6739cfc560083fdc7260c01b612b32565b6117736796a7c136d30bd92d60c01b612b32565b7fd3ec68698a05bb514b73955daacf9766a746a7e821fd9751d9e026a64fad5bba826040516117a29190614e9a565b60405180910390a15b5050565b6117c367f22a2d0df427988560c01b612b32565b7f241ecf16d79d0f8dbfb92cbc07fe17840425976cf0667f022fe9877caa831b086117ed81612b35565b611801674f98f600b6de3cdf60c01b612b32565b61181567ba73a8b46334e67c60c01b612b32565b61182967dbe0d69eddd8bea160c01b612b32565b61183d67be4580c7b304baa060c01b612b32565b81600b54036118875761185a6702129f5478d71e2160c01b612b32565b61186e678dfd9f984a607f4160c01b612b32565b611882672fce29550ac53aa960c01b612b32565b611916565b61189b67e1cc2766fe9de4cd60c01b612b32565b6118af67a03292db0747c3aa60c01b612b32565b81600b819055506118ca6785910f8868a6c29760c01b612b32565b6118de6789600515caa5642c60c01b612b32565b7fbe977e2c218adf4c3954453b9aa8652a0d74138398cfb00edb351584019fa51c8260405161190d9190614e9a565b60405180910390a15b5050565b6000600a600084815260200190815260200160002060000160008373ffffffffffffffffffffffffffffffffffffffff1673ffffffffffffffffffffffffffffffffffffffff16815260200190815260200160002060009054906101000a900460ff16905092915050565b6060600180546119949061568f565b80601f01602080910402602001604051908101604052809291908181526020018280546119c09061568f565b8015611a0d5780601f106119e257610100808354040283529160200191611a0d565b820191906000526020600020905b8154815290600101906020018083116119f057829003601f168201915b5050505050905090565b600e8054611a249061568f565b80601f0160208091040260200160405190810160405280929190818152602001828054611a509061568f565b8015611a9d5780601f10611a7257610100808354040283529160200191611a9d565b820191906000526020600020905b815481529060010190602001808311611a8057829003601f168201915b505050505081565b6000801b81565b611ac0674b909eb7de96d64060c01b61291b565b81611aca8161291e565b611ade67eb9238bebb08c7df60c01b61291b565b611af267e3b4fe7d5f86177160c01b61291b565b611b066734d32c369348d2fe60c01b61291b565b611b1a67a5c3ed38264fddf160c01b61291b565b611b248383613012565b505050565b60608282905067ffffffffffffffff811115611b4857611b476150c6565b5b604051908082528060200260200182016040528015611b7b57816020015b6060815260200190600190039081611b665790505b50905060005b83839050811015611c2e57611bfd30858584818110611ba357611ba26158d9565b5b9050602002810190611bb59190615c89565b8080601f016020809104026020016040519081016040528093929190818152602001838380828437600081840152601f19601f82011690508083019250505050505050613028565b828281518110611c1057611c0f6158d9565b5b60200260200101819052508080611c2690615d1b565b915050611b81565b5092915050565b600d5481565b611c4f67d04ff4aa0b9885e260c01b61287f565b611c6367cbbafb2dbbcfe52060c01b61287f565b611c77678c2d95cb70a9d75c60c01b61287f565b6658d15e17628000341015611cf457611c9a67746de1788133561460c01b61287f565b611cae67c0b45d28596bf3c360c01b61287f565b346658d15e176280006040517f4c41215f000000000000000000000000000000000000000000000000000000008152600401611ceb929190615d63565b60405180910390fd5b611d0867e7685f7caf5c942f60c01b61287f565b611d1c673a4e8d8ea36bc23760c01b61287f565b611d3067e7a3a0d52fa1c2ef60c01b61287f565b6000600b549050611d4b67737cc2d01e0f94c160c01b61287f565b611d5f67f51da0e1782fbd6960c01b61287f565b60008103611dcf57611d7b675dcb1bc3eefa11c560c01b61287f565b611d8f67990ac19a536a37f460c01b61287f565b6000806040517f5d5f4e44000000000000000000000000000000000000000000000000000000008152600401611dc6929190615dc7565b60405180910390fd5b611de3671ddc9b61f96b752860c01b61287f565b611df767cdb28bc107295cf760c01b61287f565b611e0b67aefc361bfcc742d960c01b61287f565b6000429050611e2467be3765d1fc4d9b7760c01b61287f565b611e3867b77673243cd0599a60c01b61287f565b81811015611ea857611e5467df3a658c6558342460c01b61287f565b611e6867200de0d43c27b0e660c01b61287f565b8160006040517f5d5f4e44000000000000000000000000000000000000000000000000000000008152600401611e9f929190615df0565b60405180910390fd5b611ebc6797e43503caf421b360c01b61287f565b611ed067d4ed94c806c4d40560c01b61287f565b611ee4673fb17dca2c0bffac60c01b61287f565b6000611eee612dd7565b9050611f04678308ee3a52782ee260c01b61287f565b611f186709ea49f3e25befca60c01b61287f565b600c5483611f269190615e19565b82101561200557611f41679a65eafadcc10db160c01b61287f565b611f55673ed2de5f77f6dd9960c01b61287f565b611f69676f1391b6d9d4f86d60c01b61287f565b611f74818686610e30565b611fec57611f8c67c55f3a62b394bcb160c01b61287f565b611fa0679650517d3321df9360c01b61287f565b82600c5484611faf9190615e19565b6040517f5d5f4e44000000000000000000000000000000000000000000000000000000008152600401611fe3929190615d63565b60405180910390fd5b6120006706c3b75fe3d717d060c01b61287f565b61201a565b612019675d892312371e25d260c01b61287f565b5b61202e67af8a179590cf753160c01b61287f565b61204267ac1cd712413eda0160c01b61287f565b6000601060008373ffffffffffffffffffffffffffffffffffffffff1673ffffffffffffffffffffffffffffffffffffffff16815260200190815260200160002054146120ee5761209d67800601b9d2c094bb60c01b61287f565b6120b1676ec5964c27a27be260c01b61287f565b806040517fef3654990000000000000000000000000000000000000000000000000000000081526004016120e59190614db1565b60405180910390fd5b612102674a5f79528b4ebda860c01b61287f565b612116679d8930ebf7c557b860c01b61287f565b61212a678a3a238d5bc2b4fa60c01b61287f565b60006001612136610d4a565b6121409190615e19565b90506121566781fcbd90cb467cf160c01b61287f565b80601060008473ffffffffffffffffffffffffffffffffffffffff1673ffffffffffffffffffffffffffffffffffffffff168152602001908152602001600020819055506121ae67f1c190beb47828ce60c01b61287f565b6121c267a34f14e0e03a187860c01b61287f565b611a0a811115612226576121e067230e54395f9ad2dd60c01b61287f565b6121f467490fec9a6738d2d860c01b61287f565b6040517f0e2a625000000000000000000000000000000000000000000000000000000000815260040160405180910390fd5b61223a67154b82b4758f920d60c01b61287f565b61224e67222e11515f64cb1d60c01b61287f565b6122626795a324a71fcd052a60c01b61287f565b61226c8282613055565b505050505050565b61228867f020fb2b213711c760c01b61291b565b833373ffffffffffffffffffffffffffffffffffffffff168173ffffffffffffffffffffffffffffffffffffffff16146122c6576122c53361291e565b5b6122da67400da1becfa7446160c01b61291b565b6122ee67a2468c26bfa4a72360c01b61291b565b6123026792c8bfbeb6762df960c01b61291b565b61231667c2af37964e537e2160c01b61291b565b61232285858585613073565b5050505050565b606061233f676a9c8e4a50766cac60c01b61287f565b61235367e5ed8b9bec52856f60c01b61287f565b61236767af680497b271e7b560c01b61287f565b6000612372836130d5565b90506123886714eaf619f7a5ec7960c01b61287f565b61239c672054f86415e133b460c01b61287f565b60008151111561240a576123ba67d67e0a07e907b20f60c01b61287f565b6123ce674a2f4fd467b2fb0960c01b61287f565b6123e267add44a7df87aa31060c01b61287f565b806040516020016123f39190615ed5565b6040516020818303038152906040529150506124d5565b61241e67f6ea2e8d10040d6460c01b61287f565b612432678695dfff5b8e7f3b60c01b61287f565b61244667bff1fa00e8b8a56160c01b61287f565b600f80546124539061568f565b80601f016020809104026020016040519081016040528092919081815260200182805461247f9061568f565b80156124cc5780601f106124a1576101008083540402835291602001916124cc565b820191906000526020600020905b8154815290600101906020018083116124af57829003601f168201915b50505050509150505b919050565b6124e382610e0a565b6124ec81612b35565b6124f68383612ddf565b505050565b6000600560008473ffffffffffffffffffffffffffffffffffffffff1673ffffffffffffffffffffffffffffffffffffffff16815260200190815260200160002060008373ffffffffffffffffffffffffffffffffffffffff1673ffffffffffffffffffffffffffffffffffffffff16815260200190815260200160002060009054906101000a900460ff16905092915050565b7f241ecf16d79d0f8dbfb92cbc07fe17840425976cf0667f022fe9877caa831b0881565b7f50358d54033371cd7c49ce476a9d4c06dff7774afe05888d4a22b287e1bfe7f481565b7f000000000000000000000000000000000000000000000000000000000000000081565b61260784848484612759565b600181111561264b576040517f08c379a000000000000000000000000000000000000000000000000000000000815260040161264290615f69565b60405180910390fd5b6000829050600073ffffffffffffffffffffffffffffffffffffffff168573ffffffffffffffffffffffffffffffffffffffff16036126925761268d8161313d565b6126d1565b8373ffffffffffffffffffffffffffffffffffffffff168573ffffffffffffffffffffffffffffffffffffffff16146126d0576126cf8582613186565b5b5b600073ffffffffffffffffffffffffffffffffffffffff168473ffffffffffffffffffffffffffffffffffffffff16036127135761270e816132f3565b612752565b8473ffffffffffffffffffffffffffffffffffffffff168473ffffffffffffffffffffffffffffffffffffffff16146127515761275084826133c4565b5b5b5050505050565b600181111561287957600073ffffffffffffffffffffffffffffffffffffffff168473ffffffffffffffffffffffffffffffffffffffff16146127ed5780600360008673ffffffffffffffffffffffffffffffffffffffff1673ffffffffffffffffffffffffffffffffffffffff16815260200190815260200160002060008282546127e59190615f89565b925050819055505b600073ffffffffffffffffffffffffffffffffffffffff168373ffffffffffffffffffffffffffffffffffffffff16146128785780600360008573ffffffffffffffffffffffffffffffffffffffff1673ffffffffffffffffffffffffffffffffffffffff16815260200190815260200160002060008282546128709190615e19565b925050819055505b5b50505050565b50565b60006128986799bef58e5df151ab60c01b612b32565b6128ac6799f066673d7dee0460c01b612b32565b6128c06751103b5c4e4e573c60c01b612b32565b6128c982613443565b9050919050565b6128d9816134bd565b612918576040517f08c379a000000000000000000000000000000000000000000000000000000000815260040161290f90615bc8565b60405180910390fd5b50565b50565b60006daaeb6d7670e522a718067333cd4e73ffffffffffffffffffffffffffffffffffffffff163b1115612a18576daaeb6d7670e522a718067333cd4e73ffffffffffffffffffffffffffffffffffffffff1663c617113430836040518363ffffffff1660e01b8152600401612995929190615fbd565b602060405180830381865afa1580156129b2573d6000803e3d6000fd5b505050506040513d601f19601f820116820180604052508101906129d69190615ffb565b612a1757806040517fede71dcc000000000000000000000000000000000000000000000000000000008152600401612a0e9190614db1565b60405180910390fd5b5b50565b6000612a2682611356565b90508073ffffffffffffffffffffffffffffffffffffffff168373ffffffffffffffffffffffffffffffffffffffff1603612a96576040517f08c379a0000000000000000000000000000000000000000000000000000000008152600401612a8d9061609a565b60405180910390fd5b8073ffffffffffffffffffffffffffffffffffffffff16612ab5612dd7565b73ffffffffffffffffffffffffffffffffffffffff161480612ae45750612ae381612ade612dd7565b6124fb565b5b612b23576040517f08c379a0000000000000000000000000000000000000000000000000000000008152600401612b1a9061612c565b60405180910390fd5b612b2d83836134fe565b505050565b50565b612b4681612b41612dd7565b6135b7565b50565b612b5d67f7106db91a734e2660c01b61363c565b612b7167a7d7dedc36975bdc60c01b61363c565b612b8567491396ed7d8ac7b160c01b61363c565b600073ffffffffffffffffffffffffffffffffffffffff168373ffffffffffffffffffffffffffffffffffffffff1603612c1357612bcd674024614007bad80760c01b61363c565b612be167d20abff0f43c908c60c01b61363c565b6040517fcb59f26700000000000000000000000000000000000000000000000000000000815260040160405180910390fd5b612c2767602eda19af3e19b960c01b61363c565b612c3b676313224e95f3249360c01b61363c565b612c4f67d76be2d64c9b4d9f60c01b61363c565b612c7a82828573ffffffffffffffffffffffffffffffffffffffff1661363f9092919063ffffffff16565b505050565b612c90612c8a612dd7565b826136c5565b612ccf576040517f08c379a0000000000000000000000000000000000000000000000000000000008152600401612cc6906161be565b60405180910390fd5b612cda83838361375a565b505050565b600082612cec8584613a53565b1490509392505050565b612d00828261191a565b612dd3576001600a600084815260200190815260200160002060000160008373ffffffffffffffffffffffffffffffffffffffff1673ffffffffffffffffffffffffffffffffffffffff16815260200190815260200160002060006101000a81548160ff021916908315150217905550612d78612dd7565b73ffffffffffffffffffffffffffffffffffffffff168173ffffffffffffffffffffffffffffffffffffffff16837f2f8788117e7eff1d82e926ec794901d17c78024a50270940304540a733656f0d60405160405180910390a45b5050565b600033905090565b612de9828261191a565b15612ebd576000600a600084815260200190815260200160002060000160008373ffffffffffffffffffffffffffffffffffffffff1673ffffffffffffffffffffffffffffffffffffffff16815260200190815260200160002060006101000a81548160ff021916908315150217905550612e62612dd7565b73ffffffffffffffffffffffffffffffffffffffff168173ffffffffffffffffffffffffffffffffffffffff16837ff6391f5c32d9c69d2a47ea670b442974b53935d1edc7fd64eb21e047a839171b60405160405180910390a45b5050565b80471015612f04576040517f08c379a0000000000000000000000000000000000000000000000000000000008152600401612efb9061622a565b60405180910390fd5b60008273ffffffffffffffffffffffffffffffffffffffff1682604051612f2a9061627b565b60006040518083038185875af1925050503d8060008114612f67576040519150601f19603f3d011682016040523d82523d6000602084013e612f6c565b606091505b5050905080612fb0576040517f08c379a0000000000000000000000000000000000000000000000000000000008152600401612fa790616302565b60405180910390fd5b505050565b612fd083838360405180602001604052806000815250612274565b505050565b60006002600083815260200190815260200160002060009054906101000a900473ffffffffffffffffffffffffffffffffffffffff169050919050565b61302461301d612dd7565b8383613aa9565b5050565b606061304d8383604051806060016040528060278152602001616b2160279139613c15565b905092915050565b61306f828260405180602001604052806000815250613c9b565b5050565b61308461307e612dd7565b836136c5565b6130c3576040517f08c379a00000000000000000000000000000000000000000000000000000000081526004016130ba906161be565b60405180910390fd5b6130cf84848484613cf6565b50505050565b60606130e0826128d0565b60006130ea613d52565b9050600081511161310a5760405180602001604052806000815250613135565b8061311484613e20565b604051602001613125929190616322565b6040516020818303038152906040525b915050919050565b6008805490506009600083815260200190815260200160002081905550600881908060018154018082558091505060019003906000526020600020016000909190919091505550565b6000600161319384611575565b61319d9190615f89565b9050600060076000848152602001908152602001600020549050818114613282576000600660008673ffffffffffffffffffffffffffffffffffffffff1673ffffffffffffffffffffffffffffffffffffffff168152602001908152602001600020600084815260200190815260200160002054905080600660008773ffffffffffffffffffffffffffffffffffffffff1673ffffffffffffffffffffffffffffffffffffffff168152602001908152602001600020600084815260200190815260200160002081905550816007600083815260200190815260200160002081905550505b6007600084815260200190815260200160002060009055600660008573ffffffffffffffffffffffffffffffffffffffff1673ffffffffffffffffffffffffffffffffffffffff16815260200190815260200160002060008381526020019081526020016000206000905550505050565b600060016008805490506133079190615f89565b9050600060096000848152602001908152602001600020549050600060088381548110613337576133366158d9565b5b906000526020600020015490508060088381548110613359576133586158d9565b5b9060005260206000200181905550816009600083815260200190815260200160002081905550600960008581526020019081526020016000206000905560088054806133a8576133a7616346565b5b6001900381819060005260206000200160009055905550505050565b60006133cf83611575565b905081600660008573ffffffffffffffffffffffffffffffffffffffff1673ffffffffffffffffffffffffffffffffffffffff168152602001908152602001600020600083815260200190815260200160002081905550806007600084815260200190815260200160002081905550505050565b60007f7965db0b000000000000000000000000000000000000000000000000000000007bffffffffffffffffffffffffffffffffffffffffffffffffffffffff1916827bffffffffffffffffffffffffffffffffffffffffffffffffffffffff191614806134b657506134b582613eee565b5b9050919050565b60008073ffffffffffffffffffffffffffffffffffffffff166134df83612fd5565b73ffffffffffffffffffffffffffffffffffffffff1614159050919050565b816004600083815260200190815260200160002060006101000a81548173ffffffffffffffffffffffffffffffffffffffff021916908373ffffffffffffffffffffffffffffffffffffffff160217905550808273ffffffffffffffffffffffffffffffffffffffff1661357183611356565b73ffffffffffffffffffffffffffffffffffffffff167f8c5be1e5ebec7d5bd14f71427d1e84f3dd0314c0f7b2291e5b200ac8c7c3b92560405160405180910390a45050565b6135c1828261191a565b613638576135ce81613f3c565b6135dc8360001c6020613f69565b6040516020016135ed92919061640d565b6040516020818303038152906040526040517f08c379a000000000000000000000000000000000000000000000000000000000815260040161362f9190614ceb565b60405180910390fd5b5050565b50565b6136c08363a9059cbb60e01b848460405160240161365e929190616447565b604051602081830303815290604052907bffffffffffffffffffffffffffffffffffffffffffffffffffffffff19166020820180517bffffffffffffffffffffffffffffffffffffffffffffffffffffffff83818316178352505050506141a5565b505050565b6000806136d183611356565b90508073ffffffffffffffffffffffffffffffffffffffff168473ffffffffffffffffffffffffffffffffffffffff161480613713575061371281856124fb565b5b8061375157508373ffffffffffffffffffffffffffffffffffffffff1661373984610be8565b73ffffffffffffffffffffffffffffffffffffffff16145b91505092915050565b8273ffffffffffffffffffffffffffffffffffffffff1661377a82611356565b73ffffffffffffffffffffffffffffffffffffffff16146137d0576040517f08c379a00000000000000000000000000000000000000000000000000000000081526004016137c7906164e2565b60405180910390fd5b600073ffffffffffffffffffffffffffffffffffffffff168273ffffffffffffffffffffffffffffffffffffffff160361383f576040517f08c379a000000000000000000000000000000000000000000000000000000000815260040161383690616574565b60405180910390fd5b61384c838383600161426c565b8273ffffffffffffffffffffffffffffffffffffffff1661386c82611356565b73ffffffffffffffffffffffffffffffffffffffff16146138c2576040517f08c379a00000000000000000000000000000000000000000000000000000000081526004016138b9906164e2565b60405180910390fd5b6004600082815260200190815260200160002060006101000a81549073ffffffffffffffffffffffffffffffffffffffff02191690556001600360008573ffffffffffffffffffffffffffffffffffffffff1673ffffffffffffffffffffffffffffffffffffffff168152602001908152602001600020600082825403925050819055506001600360008473ffffffffffffffffffffffffffffffffffffffff1673ffffffffffffffffffffffffffffffffffffffff16815260200190815260200160002060008282540192505081905550816002600083815260200190815260200160002060006101000a81548173ffffffffffffffffffffffffffffffffffffffff021916908373ffffffffffffffffffffffffffffffffffffffff160217905550808273ffffffffffffffffffffffffffffffffffffffff168473ffffffffffffffffffffffffffffffffffffffff167fddf252ad1be2c89b69c2b068fc378daa952ba7f163c4a11628f55a4df523b3ef60405160405180910390a4613a4e83838360016142ba565b505050565b60008082905060005b8451811015613a9e57613a8982868381518110613a7c57613a7b6158d9565b5b60200260200101516142c0565b91508080613a9690615d1b565b915050613a5c565b508091505092915050565b8173ffffffffffffffffffffffffffffffffffffffff168373ffffffffffffffffffffffffffffffffffffffff1603613b17576040517f08c379a0000000000000000000000000000000000000000000000000000000008152600401613b0e906165e0565b60405180910390fd5b80600560008573ffffffffffffffffffffffffffffffffffffffff1673ffffffffffffffffffffffffffffffffffffffff16815260200190815260200160002060008473ffffffffffffffffffffffffffffffffffffffff1673ffffffffffffffffffffffffffffffffffffffff16815260200190815260200160002060006101000a81548160ff0219169083151502179055508173ffffffffffffffffffffffffffffffffffffffff168373ffffffffffffffffffffffffffffffffffffffff167f17307eab39ab6107e8899845ad3d59bd9653f200f220920489ca2b5937696c3183604051613c089190614c40565b60405180910390a3505050565b60606000808573ffffffffffffffffffffffffffffffffffffffff1685604051613c3f9190616631565b600060405180830381855af49150503d8060008114613c7a576040519150601f19603f3d011682016040523d82523d6000602084013e613c7f565b606091505b5091509150613c90868383876142eb565b925050509392505050565b613ca58383614360565b613cb2600084848461457d565b613cf1576040517f08c379a0000000000000000000000000000000000000000000000000000000008152600401613ce8906166ba565b60405180910390fd5b505050565b613d0184848461375a565b613d0d8484848461457d565b613d4c576040517f08c379a0000000000000000000000000000000000000000000000000000000008152600401613d43906166ba565b60405180910390fd5b50505050565b6060613d6867a1a85a33f2facfee60c01b61287f565b613d7c6730cf3d9f4238d50a60c01b61287f565b613d906744652be89fda744f60c01b61287f565b600e8054613d9d9061568f565b80601f0160208091040260200160405190810160405280929190818152602001828054613dc99061568f565b8015613e165780601f10613deb57610100808354040283529160200191613e16565b820191906000526020600020905b815481529060010190602001808311613df957829003601f168201915b5050505050905090565b606060006001613e2f84614704565b01905060008167ffffffffffffffff811115613e4e57613e4d6150c6565b5b6040519080825280601f01601f191660200182016040528015613e805781602001600182028036833780820191505090505b509050600082602001820190505b600115613ee3578080600190039150507f3031323334353637383961626364656600000000000000000000000000000000600a86061a8153600a8581613ed757613ed66166da565b5b04945060008503613e8e575b819350505050919050565b6000613f0467c9b6a3d32fda337160c01b61291b565b613f1867ffb1663f0395f25d60c01b61291b565b613f2c674ee3e24947d4a92560c01b61291b565b613f3582614857565b9050919050565b6060613f628273ffffffffffffffffffffffffffffffffffffffff16601460ff16613f69565b9050919050565b606060006002836002613f7c9190616709565b613f869190615e19565b67ffffffffffffffff811115613f9f57613f9e6150c6565b5b6040519080825280601f01601f191660200182016040528015613fd15781602001600182028036833780820191505090505b5090507f300000000000000000000000000000000000000000000000000000000000000081600081518110614009576140086158d9565b5b60200101907effffffffffffffffffffffffffffffffffffffffffffffffffffffffffffff1916908160001a9053507f78000000000000000000000000000000000000000000000000000000000000008160018151811061406d5761406c6158d9565b5b60200101907effffffffffffffffffffffffffffffffffffffffffffffffffffffffffffff1916908160001a905350600060018460026140ad9190616709565b6140b79190615e19565b90505b6001811115614157577f3031323334353637383961626364656600000000000000000000000000000000600f8616601081106140f9576140f86158d9565b5b1a60f81b8282815181106141105761410f6158d9565b5b60200101907effffffffffffffffffffffffffffffffffffffffffffffffffffffffffffff1916908160001a905350600485901c9450806141509061674b565b90506140ba565b506000841461419b576040517f08c379a0000000000000000000000000000000000000000000000000000000008152600401614192906167c0565b60405180910390fd5b8091505092915050565b6000614207826040518060400160405280602081526020017f5361666545524332303a206c6f772d6c6576656c2063616c6c206661696c65648152508573ffffffffffffffffffffffffffffffffffffffff166148d19092919063ffffffff16565b905060008151111561426757808060200190518101906142279190615ffb565b614266576040517f08c379a000000000000000000000000000000000000000000000000000000000815260040161425d90616852565b60405180910390fd5b5b505050565b6142806741d73921afd5847660c01b61291b565b614294674130f767ee77d3aa60c01b61291b565b6142a867c49a112ae79b17e860c01b61291b565b6142b4848484846125fb565b50505050565b50505050565b60008183106142d8576142d382846148e9565b6142e3565b6142e283836148e9565b5b905092915050565b6060831561434d5760008351036143455761430585614900565b614344576040517f08c379a000000000000000000000000000000000000000000000000000000000815260040161433b906168be565b60405180910390fd5b5b829050614358565b6143578383614923565b5b949350505050565b600073ffffffffffffffffffffffffffffffffffffffff168273ffffffffffffffffffffffffffffffffffffffff16036143cf576040517f08c379a00000000000000000000000000000000000000000000000000000000081526004016143c69061692a565b60405180910390fd5b6143d8816134bd565b15614418576040517f08c379a000000000000000000000000000000000000000000000000000000000815260040161440f90616996565b60405180910390fd5b61442660008383600161426c565b61442f816134bd565b1561446f576040517f08c379a000000000000000000000000000000000000000000000000000000000815260040161446690616996565b60405180910390fd5b6001600360008473ffffffffffffffffffffffffffffffffffffffff1673ffffffffffffffffffffffffffffffffffffffff16815260200190815260200160002060008282540192505081905550816002600083815260200190815260200160002060006101000a81548173ffffffffffffffffffffffffffffffffffffffff021916908373ffffffffffffffffffffffffffffffffffffffff160217905550808273ffffffffffffffffffffffffffffffffffffffff16600073ffffffffffffffffffffffffffffffffffffffff167fddf252ad1be2c89b69c2b068fc378daa952ba7f163c4a11628f55a4df523b3ef60405160405180910390a46145796000838360016142ba565b5050565b600061459e8473ffffffffffffffffffffffffffffffffffffffff16614900565b156146f7578373ffffffffffffffffffffffffffffffffffffffff1663150b7a026145c7612dd7565b8786866040518563ffffffff1660e01b81526004016145e99493929190616a00565b6020604051808303816000875af192505050801561462557506040513d601f19601f820116820180604052508101906146229190616a61565b60015b6146a7573d8060008114614655576040519150601f19603f3d011682016040523d82523d6000602084013e61465a565b606091505b50600081510361469f576040517f08c379a0000000000000000000000000000000000000000000000000000000008152600401614696906166ba565b60405180910390fd5b805181602001fd5b63150b7a0260e01b7bffffffffffffffffffffffffffffffffffffffffffffffffffffffff1916817bffffffffffffffffffffffffffffffffffffffffffffffffffffffff1916149150506146fc565b600190505b949350505050565b600080600090507a184f03e93ff9f4daa797ed6e38ed64bf6a1f0100000000000000008310614762577a184f03e93ff9f4daa797ed6e38ed64bf6a1f0100000000000000008381614758576147576166da565b5b0492506040810190505b6d04ee2d6d415b85acef8100000000831061479f576d04ee2d6d415b85acef81000000008381614795576147946166da565b5b0492506020810190505b662386f26fc1000083106147ce57662386f26fc1000083816147c4576147c36166da565b5b0492506010810190505b6305f5e10083106147f7576305f5e10083816147ed576147ec6166da565b5b0492506008810190505b612710831061481c576127108381614812576148116166da565b5b0492506004810190505b6064831061483f5760648381614835576148346166da565b5b0492506002810190505b600a831061484e576001810190505b80915050919050565b60007f780e9d63000000000000000000000000000000000000000000000000000000007bffffffffffffffffffffffffffffffffffffffffffffffffffffffff1916827bffffffffffffffffffffffffffffffffffffffffffffffffffffffff191614806148ca57506148c982614973565b5b9050919050565b60606148e08484600085614a55565b90509392505050565b600082600052816020526040600020905092915050565b6000808273ffffffffffffffffffffffffffffffffffffffff163b119050919050565b6000825111156149365781518083602001fd5b806040517f08c379a000000000000000000000000000000000000000000000000000000000815260040161496a9190614ceb565b60405180910390fd5b60007f80ac58cd000000000000000000000000000000000000000000000000000000007bffffffffffffffffffffffffffffffffffffffffffffffffffffffff1916827bffffffffffffffffffffffffffffffffffffffffffffffffffffffff19161480614a3e57507f5b5e139f000000000000000000000000000000000000000000000000000000007bffffffffffffffffffffffffffffffffffffffffffffffffffffffff1916827bffffffffffffffffffffffffffffffffffffffffffffffffffffffff1916145b80614a4e5750614a4d82614b22565b5b9050919050565b606082471015614a9a576040517f08c379a0000000000000000000000000000000000000000000000000000000008152600401614a9190616b00565b60405180910390fd5b6000808673ffffffffffffffffffffffffffffffffffffffff168587604051614ac39190616631565b60006040518083038185875af1925050503d8060008114614b00576040519150601f19603f3d011682016040523d82523d6000602084013e614b05565b606091505b5091509150614b16878383876142eb565b92505050949350505050565b60007f01ffc9a7000000000000000000000000000000000000000000000000000000007bffffffffffffffffffffffffffffffffffffffffffffffffffffffff1916827bffffffffffffffffffffffffffffffffffffffffffffffffffffffff1916149050919050565b6000604051905090565b600080fd5b600080fd5b60007fffffffff0000000000000000000000000000000000000000000000000000000082169050919050565b614bd581614ba0565b8114614be057600080fd5b50565b600081359050614bf281614bcc565b92915050565b600060208284031215614c0e57614c0d614b96565b5b6000614c1c84828501614be3565b91505092915050565b60008115159050919050565b614c3a81614c25565b82525050565b6000602082019050614c556000830184614c31565b92915050565b600081519050919050565b600082825260208201905092915050565b60005b83811015614c95578082015181840152602081019050614c7a565b60008484015250505050565b6000601f19601f8301169050919050565b6000614cbd82614c5b565b614cc78185614c66565b9350614cd7818560208601614c77565b614ce081614ca1565b840191505092915050565b60006020820190508181036000830152614d058184614cb2565b905092915050565b6000819050919050565b614d2081614d0d565b8114614d2b57600080fd5b50565b600081359050614d3d81614d17565b92915050565b600060208284031215614d5957614d58614b96565b5b6000614d6784828501614d2e565b91505092915050565b600073ffffffffffffffffffffffffffffffffffffffff82169050919050565b6000614d9b82614d70565b9050919050565b614dab81614d90565b82525050565b6000602082019050614dc66000830184614da2565b92915050565b614dd581614d90565b8114614de057600080fd5b50565b600081359050614df281614dcc565b92915050565b60008060408385031215614e0f57614e0e614b96565b5b6000614e1d85828601614de3565b9250506020614e2e85828601614d2e565b9150509250929050565b600080600060608486031215614e5157614e50614b96565b5b6000614e5f86828701614de3565b9350506020614e7086828701614de3565b9250506040614e8186828701614d2e565b9150509250925092565b614e9481614d0d565b82525050565b6000602082019050614eaf6000830184614e8b565b92915050565b6000819050919050565b614ec881614eb5565b8114614ed357600080fd5b50565b600081359050614ee581614ebf565b92915050565b600060208284031215614f0157614f00614b96565b5b6000614f0f84828501614ed6565b91505092915050565b614f2181614eb5565b82525050565b6000602082019050614f3c6000830184614f18565b92915050565b600080fd5b600080fd5b600080fd5b60008083601f840112614f6757614f66614f42565b5b8235905067ffffffffffffffff811115614f8457614f83614f47565b5b602083019150836020820283011115614fa057614f9f614f4c565b5b9250929050565b600080600060408486031215614fc057614fbf614b96565b5b6000614fce86828701614de3565b935050602084013567ffffffffffffffff811115614fef57614fee614b9b565b5b614ffb86828701614f51565b92509250509250925092565b6000806040838503121561501e5761501d614b96565b5b600061502c85828601614ed6565b925050602061503d85828601614de3565b9150509250929050565b6000819050919050565b600061506c61506761506284614d70565b615047565b614d70565b9050919050565b600061507e82615051565b9050919050565b600061509082615073565b9050919050565b6150a081615085565b82525050565b60006020820190506150bb6000830184615097565b92915050565b600080fd5b7f4e487b7100000000000000000000000000000000000000000000000000000000600052604160045260246000fd5b6150fe82614ca1565b810181811067ffffffffffffffff8211171561511d5761511c6150c6565b5b80604052505050565b6000615130614b8c565b905061513c82826150f5565b919050565b600067ffffffffffffffff82111561515c5761515b6150c6565b5b61516582614ca1565b9050602081019050919050565b82818337600083830152505050565b600061519461518f84615141565b615126565b9050828152602081018484840111156151b0576151af6150c1565b5b6151bb848285615172565b509392505050565b600082601f8301126151d8576151d7614f42565b5b81356151e8848260208601615181565b91505092915050565b60006020828403121561520757615206614b96565b5b600082013567ffffffffffffffff81111561522557615224614b9b565b5b615231848285016151c3565b91505092915050565b6000602082840312156152505761524f614b96565b5b600061525e84828501614de3565b91505092915050565b61527081614c25565b811461527b57600080fd5b50565b60008135905061528d81615267565b92915050565b600080604083850312156152aa576152a9614b96565b5b60006152b885828601614de3565b92505060206152c98582860161527e565b9150509250929050565b60008083601f8401126152e9576152e8614f42565b5b8235905067ffffffffffffffff81111561530657615305614f47565b5b60208301915083602082028301111561532257615321614f4c565b5b9250929050565b600080602083850312156153405761533f614b96565b5b600083013567ffffffffffffffff81111561535e5761535d614b9b565b5b61536a858286016152d3565b92509250509250929050565b600081519050919050565b600082825260208201905092915050565b6000819050602082019050919050565b600081519050919050565b600082825260208201905092915050565b60006153c9826153a2565b6153d381856153ad565b93506153e3818560208601614c77565b6153ec81614ca1565b840191505092915050565b600061540383836153be565b905092915050565b6000602082019050919050565b600061542382615376565b61542d8185615381565b93508360208202850161543f85615392565b8060005b8581101561547b578484038952815161545c85826153f7565b94506154678361540b565b925060208a01995050600181019050615443565b50829750879550505050505092915050565b600060208201905081810360008301526154a78184615418565b905092915050565b600080602083850312156154c6576154c5614b96565b5b600083013567ffffffffffffffff8111156154e4576154e3614b9b565b5b6154f085828601614f51565b92509250509250929050565b600067ffffffffffffffff821115615517576155166150c6565b5b61552082614ca1565b9050602081019050919050565b600061554061553b846154fc565b615126565b90508281526020810184848401111561555c5761555b6150c1565b5b615567848285615172565b509392505050565b600082601f83011261558457615583614f42565b5b813561559484826020860161552d565b91505092915050565b600080600080608085870312156155b7576155b6614b96565b5b60006155c587828801614de3565b94505060206155d687828801614de3565b93505060406155e787828801614d2e565b925050606085013567ffffffffffffffff81111561560857615607614b9b565b5b6156148782880161556f565b91505092959194509250565b6000806040838503121561563757615636614b96565b5b600061564585828601614de3565b925050602061565685828601614de3565b9150509250929050565b7f4e487b7100000000000000000000000000000000000000000000000000000000600052602260045260246000fd5b600060028204905060018216806156a757607f821691505b6020821081036156ba576156b9615660565b5b50919050565b60008160601b9050919050565b60006156d8826156c0565b9050919050565b60006156ea826156cd565b9050919050565b6157026156fd82614d90565b6156df565b82525050565b600061571482846156f1565b60148201915081905092915050565b7f455243373231456e756d657261626c653a206f776e657220696e646578206f7560008201527f74206f6620626f756e6473000000000000000000000000000000000000000000602082015250565b600061577f602b83614c66565b915061578a82615723565b604082019050919050565b600060208201905081810360008301526157ae81615772565b9050919050565b7f416363657373436f6e74726f6c3a2063616e206f6e6c792072656e6f756e636560008201527f20726f6c657320666f722073656c660000000000000000000000000000000000602082015250565b6000615811602f83614c66565b915061581c826157b5565b604082019050919050565b6000602082019050818103600083015261584081615804565b9050919050565b7f455243373231456e756d657261626c653a20676c6f62616c20696e646578206f60008201527f7574206f6620626f756e64730000000000000000000000000000000000000000602082015250565b60006158a3602c83614c66565b91506158ae82615847565b604082019050919050565b600060208201905081810360008301526158d281615896565b9050919050565b7f4e487b7100000000000000000000000000000000000000000000000000000000600052603260045260246000fd5b60008190508160005260206000209050919050565b60006020601f8301049050919050565b600082821b905092915050565b60006008830261596a7fffffffffffffffffffffffffffffffffffffffffffffffffffffffffffffffff8261592d565b615974868361592d565b95508019841693508086168417925050509392505050565b60006159a76159a261599d84614d0d565b615047565b614d0d565b9050919050565b6000819050919050565b6159c18361598c565b6159d56159cd826159ae565b84845461593a565b825550505050565b600090565b6159ea6159dd565b6159f58184846159b8565b505050565b5b81811015615a1957615a0e6000826159e2565b6001810190506159fb565b5050565b601f821115615a5e57615a2f81615908565b615a388461591d565b81016020851015615a47578190505b615a5b615a538561591d565b8301826159fa565b50505b505050565b600082821c905092915050565b6000615a8160001984600802615a63565b1980831691505092915050565b6000615a9a8383615a70565b9150826002028217905092915050565b615ab382614c5b565b67ffffffffffffffff811115615acc57615acb6150c6565b5b615ad6825461568f565b615ae1828285615a1d565b600060209050601f831160018114615b145760008415615b02578287015190505b615b0c8582615a8e565b865550615b74565b601f198416615b2286615908565b60005b82811015615b4a57848901518255600182019150602085019450602081019050615b25565b86831015615b675784890151615b63601f891682615a70565b8355505b6001600288020188555050505b505050505050565b7f4552433732313a20696e76616c696420746f6b656e2049440000000000000000600082015250565b6000615bb2601883614c66565b9150615bbd82615b7c565b602082019050919050565b60006020820190508181036000830152615be181615ba5565b9050919050565b7f4552433732313a2061646472657373207a65726f206973206e6f74206120766160008201527f6c6964206f776e65720000000000000000000000000000000000000000000000602082015250565b6000615c44602983614c66565b9150615c4f82615be8565b604082019050919050565b60006020820190508181036000830152615c7381615c37565b9050919050565b600080fd5b600080fd5b600080fd5b60008083356001602003843603038112615ca657615ca5615c7a565b5b80840192508235915067ffffffffffffffff821115615cc857615cc7615c7f565b5b602083019250600182023603831315615ce457615ce3615c84565b5b509250929050565b7f4e487b7100000000000000000000000000000000000000000000000000000000600052601160045260246000fd5b6000615d2682614d0d565b91507fffffffffffffffffffffffffffffffffffffffffffffffffffffffffffffffff8203615d5857615d57615cec565b5b600182019050919050565b6000604082019050615d786000830185614e8b565b615d856020830184614e8b565b9392505050565b6000819050919050565b6000615db1615dac615da784615d8c565b615047565b614d0d565b9050919050565b615dc181615d96565b82525050565b6000604082019050615ddc6000830185615db8565b615de96020830184615db8565b9392505050565b6000604082019050615e056000830185614e8b565b615e126020830184615db8565b9392505050565b6000615e2482614d0d565b9150615e2f83614d0d565b9250828201905080821115615e4757615e46615cec565b5b92915050565b600081905092915050565b6000615e6382614c5b565b615e6d8185615e4d565b9350615e7d818560208601614c77565b80840191505092915050565b7f2e6a736f6e000000000000000000000000000000000000000000000000000000600082015250565b6000615ebf600583615e4d565b9150615eca82615e89565b600582019050919050565b6000615ee18284615e58565b9150615eec82615eb2565b915081905092915050565b7f455243373231456e756d657261626c653a20636f6e736563757469766520747260008201527f616e7366657273206e6f7420737570706f727465640000000000000000000000602082015250565b6000615f53603583614c66565b9150615f5e82615ef7565b604082019050919050565b60006020820190508181036000830152615f8281615f46565b9050919050565b6000615f9482614d0d565b9150615f9f83614d0d565b9250828203905081811115615fb757615fb6615cec565b5b92915050565b6000604082019050615fd26000830185614da2565b615fdf6020830184614da2565b9392505050565b600081519050615ff581615267565b92915050565b60006020828403121561601157616010614b96565b5b600061601f84828501615fe6565b91505092915050565b7f4552433732313a20617070726f76616c20746f2063757272656e74206f776e6560008201527f7200000000000000000000000000000000000000000000000000000000000000602082015250565b6000616084602183614c66565b915061608f82616028565b604082019050919050565b600060208201905081810360008301526160b381616077565b9050919050565b7f4552433732313a20617070726f76652063616c6c6572206973206e6f7420746f60008201527f6b656e206f776e6572206f7220617070726f76656420666f7220616c6c000000602082015250565b6000616116603d83614c66565b9150616121826160ba565b604082019050919050565b6000602082019050818103600083015261614581616109565b9050919050565b7f4552433732313a2063616c6c6572206973206e6f7420746f6b656e206f776e6560008201527f72206f7220617070726f76656400000000000000000000000000000000000000602082015250565b60006161a8602d83614c66565b91506161b38261614c565b604082019050919050565b600060208201905081810360008301526161d78161619b565b9050919050565b7f416464726573733a20696e73756666696369656e742062616c616e6365000000600082015250565b6000616214601d83614c66565b915061621f826161de565b602082019050919050565b6000602082019050818103600083015261624381616207565b9050919050565b600081905092915050565b50565b600061626560008361624a565b915061627082616255565b600082019050919050565b600061628682616258565b9150819050919050565b7f416464726573733a20756e61626c6520746f2073656e642076616c75652c207260008201527f6563697069656e74206d61792068617665207265766572746564000000000000602082015250565b60006162ec603a83614c66565b91506162f782616290565b604082019050919050565b6000602082019050818103600083015261631b816162df565b9050919050565b600061632e8285615e58565b915061633a8284615e58565b91508190509392505050565b7f4e487b7100000000000000000000000000000000000000000000000000000000600052603160045260246000fd5b7f416363657373436f6e74726f6c3a206163636f756e7420000000000000000000600082015250565b60006163ab601783615e4d565b91506163b682616375565b601782019050919050565b7f206973206d697373696e6720726f6c6520000000000000000000000000000000600082015250565b60006163f7601183615e4d565b9150616402826163c1565b601182019050919050565b60006164188261639e565b91506164248285615e58565b915061642f826163ea565b915061643b8284615e58565b91508190509392505050565b600060408201905061645c6000830185614da2565b6164696020830184614e8b565b9392505050565b7f4552433732313a207472616e736665722066726f6d20696e636f72726563742060008201527f6f776e6572000000000000000000000000000000000000000000000000000000602082015250565b60006164cc602583614c66565b91506164d782616470565b604082019050919050565b600060208201905081810360008301526164fb816164bf565b9050919050565b7f4552433732313a207472616e7366657220746f20746865207a65726f2061646460008201527f7265737300000000000000000000000000000000000000000000000000000000602082015250565b600061655e602483614c66565b915061656982616502565b604082019050919050565b6000602082019050818103600083015261658d81616551565b9050919050565b7f4552433732313a20617070726f766520746f2063616c6c657200000000000000600082015250565b60006165ca601983614c66565b91506165d582616594565b602082019050919050565b600060208201905081810360008301526165f9816165bd565b9050919050565b600061660b826153a2565b616615818561624a565b9350616625818560208601614c77565b80840191505092915050565b600061663d8284616600565b915081905092915050565b7f4552433732313a207472616e7366657220746f206e6f6e20455243373231526560008201527f63656976657220696d706c656d656e7465720000000000000000000000000000602082015250565b60006166a4603283614c66565b91506166af82616648565b604082019050919050565b600060208201905081810360008301526166d381616697565b9050919050565b7f4e487b7100000000000000000000000000000000000000000000000000000000600052601260045260246000fd5b600061671482614d0d565b915061671f83614d0d565b925082820261672d81614d0d565b9150828204841483151761674457616743615cec565b5b5092915050565b600061675682614d0d565b91506000820361676957616768615cec565b5b600182039050919050565b7f537472696e67733a20686578206c656e67746820696e73756666696369656e74600082015250565b60006167aa602083614c66565b91506167b582616774565b602082019050919050565b600060208201905081810360008301526167d98161679d565b9050919050565b7f5361666545524332303a204552433230206f7065726174696f6e20646964206e60008201527f6f74207375636365656400000000000000000000000000000000000000000000602082015250565b600061683c602a83614c66565b9150616847826167e0565b604082019050919050565b6000602082019050818103600083015261686b8161682f565b9050919050565b7f416464726573733a2063616c6c20746f206e6f6e2d636f6e7472616374000000600082015250565b60006168a8601d83614c66565b91506168b382616872565b602082019050919050565b600060208201905081810360008301526168d78161689b565b9050919050565b7f4552433732313a206d696e7420746f20746865207a65726f2061646472657373600082015250565b6000616914602083614c66565b915061691f826168de565b602082019050919050565b6000602082019050818103600083015261694381616907565b9050919050565b7f4552433732313a20746f6b656e20616c7265616479206d696e74656400000000600082015250565b6000616980601c83614c66565b915061698b8261694a565b602082019050919050565b600060208201905081810360008301526169af81616973565b9050919050565b600082825260208201905092915050565b60006169d2826153a2565b6169dc81856169b6565b93506169ec818560208601614c77565b6169f581614ca1565b840191505092915050565b6000608082019050616a156000830187614da2565b616a226020830186614da2565b616a2f6040830185614e8b565b8181036060830152616a4181846169c7565b905095945050505050565b600081519050616a5b81614bcc565b92915050565b600060208284031215616a7757616a76614b96565b5b6000616a8584828501616a4c565b91505092915050565b7f416464726573733a20696e73756666696369656e742062616c616e636520666f60008201527f722063616c6c0000000000000000000000000000000000000000000000000000602082015250565b6000616aea602683614c66565b9150616af582616a8e565b604082019050919050565b60006020820190508181036000830152616b1981616add565b905091905056fe416464726573733a206c6f772d6c6576656c2064656c65676174652063616c6c206661696c6564a26469706673582212207aec3dfa1c2390f2620181ead4bff1170cc1968fdd6013aae47d89831e29e4d564736f6c63430008110033",
  "linkReferences": {},
  "deployedLinkReferences": {}
}