{
  "_format": "hh-sol-artifact-1",
  "contractName": "GhostBoy",
  "sourceName": "contracts/GhostBoy.sol",
  "abi": [
    {
      "inputs": [
        {
          "internalType": "address",
          "name": "vault",
          "type": "address"
        },
        {
          "internalType": "uint96",
          "name": "_reserved",
          "type": "uint96"
        },
        {
          "internalType": "string",
          "name": "_placeholderTokenUri",
          "type": "string"
        }
      ],
      "stateMutability": "nonpayable",
      "type": "constructor"
    },
    {
      "inputs": [
        {
          "internalType": "address",
          "name": "minter",
          "type": "address"
        }
      ],
      "name": "MintingCapped",
      "type": "error"
    },
    {
      "inputs": [],
      "name": "MintingComplete",
      "type": "error"
    },
    {
      "inputs": [],
      "name": "MintingLocked",
      "type": "error"
    },
    {
      "inputs": [],
      "name": "MissingToken",
      "type": "error"
    },
    {
      "inputs": [
        {
          "internalType": "uint256",
          "name": "provided",
          "type": "uint256"
        },
        {
          "internalType": "uint256",
          "name": "required",
          "type": "uint256"
        }
      ],
      "name": "MissingValue",
      "type": "error"
    },
    {
      "inputs": [
        {
          "internalType": "address",
          "name": "operator",
          "type": "address"
        }
      ],
      "name": "OperatorNotAllowed",
      "type": "error"
    },
    {
      "inputs": [
        {
          "internalType": "uint256",
          "name": "startTime",
          "type": "uint256"
        },
        {
          "internalType": "uint256",
          "name": "endTime",
          "type": "uint256"
        }
      ],
      "name": "OutsideWindow",
      "type": "error"
    },
    {
      "inputs": [
        {
          "internalType": "address",
          "name": "token",
          "type": "address"
        }
      ],
      "name": "UnrecoverableToken",
      "type": "error"
    },
    {
      "anonymous": false,
      "inputs": [
        {
          "indexed": true,
          "internalType": "address",
          "name": "owner",
          "type": "address"
        },
        {
          "indexed": true,
          "internalType": "address",
          "name": "approved",
          "type": "address"
        },
        {
          "indexed": true,
          "internalType": "uint256",
          "name": "tokenId",
          "type": "uint256"
        }
      ],
      "name": "Approval",
      "type": "event"
    },
    {
      "anonymous": false,
      "inputs": [
        {
          "indexed": true,
          "internalType": "address",
          "name": "owner",
          "type": "address"
        },
        {
          "indexed": true,
          "internalType": "address",
          "name": "operator",
          "type": "address"
        },
        {
          "indexed": false,
          "internalType": "bool",
          "name": "approved",
          "type": "bool"
        }
      ],
      "name": "ApprovalForAll",
      "type": "event"
    },
    {
      "anonymous": false,
      "inputs": [
        {
          "indexed": true,
          "internalType": "bytes32",
          "name": "role",
          "type": "bytes32"
        },
        {
          "indexed": true,
          "internalType": "bytes32",
          "name": "previousAdminRole",
          "type": "bytes32"
        },
        {
          "indexed": true,
          "internalType": "bytes32",
          "name": "newAdminRole",
          "type": "bytes32"
        }
      ],
      "name": "RoleAdminChanged",
      "type": "event"
    },
    {
      "anonymous": false,
      "inputs": [
        {
          "indexed": true,
          "internalType": "bytes32",
          "name": "role",
          "type": "bytes32"
        },
        {
          "indexed": true,
          "internalType": "address",
          "name": "account",
          "type": "address"
        },
        {
          "indexed": true,
          "internalType": "address",
          "name": "sender",
          "type": "address"
        }
      ],
      "name": "RoleGranted",
      "type": "event"
    },
    {
      "anonymous": false,
      "inputs": [
        {
          "indexed": true,
          "internalType": "bytes32",
          "name": "role",
          "type": "bytes32"
        },
        {
          "indexed": true,
          "internalType": "address",
          "name": "account",
          "type": "address"
        },
        {
          "indexed": true,
          "internalType": "address",
          "name": "sender",
          "type": "address"
        }
      ],
      "name": "RoleRevoked",
      "type": "event"
    },
    {
      "anonymous": false,
      "inputs": [
        {
          "indexed": true,
          "internalType": "address",
          "name": "from",
          "type": "address"
        },
        {
          "indexed": true,
          "internalType": "address",
          "name": "to",
          "type": "address"
        },
        {
          "indexed": true,
          "internalType": "uint256",
          "name": "tokenId",
          "type": "uint256"
        }
      ],
      "name": "Transfer",
      "type": "event"
    },
    {
      "anonymous": false,
      "inputs": [
        {
          "indexed": false,
          "internalType": "string",
          "name": "updatedBaseUri",
          "type": "string"
        }
      ],
      "name": "UpdateBaseUri",
      "type": "event"
    },
    {
      "anonymous": false,
      "inputs": [
        {
          "indexed": false,
          "internalType": "uint256",
          "name": "durationSeconds",
          "type": "uint256"
        }
      ],
      "name": "UpdateGhostlistDuration",
      "type": "event"
    },
    {
      "anonymous": false,
      "inputs": [
        {
          "indexed": false,
          "internalType": "bytes32",
          "name": "root",
          "type": "bytes32"
        }
      ],
      "name": "UpdateGhostlistRoot",
      "type": "event"
    },
    {
      "anonymous": false,
      "inputs": [
        {
          "indexed": false,
          "internalType": "uint256",
          "name": "startTime",
          "type": "uint256"
        }
      ],
      "name": "UpdateMintStart",
      "type": "event"
    },
    {
      "inputs": [],
      "name": "DEFAULT_ADMIN_ROLE",
      "outputs": [
        {
          "internalType": "bytes32",
          "name": "",
          "type": "bytes32"
        }
      ],
      "stateMutability": "view",
      "type": "function"
    },
    {
      "inputs": [],
      "name": "DOMAIN_SETTER_ROLE",
      "outputs": [
        {
          "internalType": "bytes32",
          "name": "",
          "type": "bytes32"
        }
      ],
      "stateMutability": "view",
      "type": "function"
    },
    {
      "inputs": [],
      "name": "FUND_MANAGER_ROLE",
      "outputs": [
        {
          "internalType": "bytes32",
          "name": "",
          "type": "bytes32"
        }
      ],
      "stateMutability": "view",
      "type": "function"
    },
    {
      "inputs": [],
      "name": "LIST_SETTER_ROLE",
      "outputs": [
        {
          "internalType": "bytes32",
          "name": "",
          "type": "bytes32"
        }
      ],
      "stateMutability": "view",
      "type": "function"
    },
    {
      "inputs": [],
      "name": "OPERATOR_FILTER_REGISTRY",
      "outputs": [
        {
          "internalType": "contract IOperatorFilterRegistry",
          "name": "",
          "type": "address"
        }
      ],
      "stateMutability": "view",
      "type": "function"
    },
    {
      "inputs": [],
      "name": "TIME_SETTER_ROLE",
      "outputs": [
        {
          "internalType": "bytes32",
          "name": "",
          "type": "bytes32"
        }
      ],
      "stateMutability": "view",
      "type": "function"
    },
    {
      "inputs": [],
      "name": "_vault",
      "outputs": [
        {
          "internalType": "address",
          "name": "",
          "type": "address"
        }
      ],
      "stateMutability": "view",
      "type": "function"
    },
    {
      "inputs": [
        {
          "internalType": "address",
          "name": "operator",
          "type": "address"
        },
        {
          "internalType": "uint256",
          "name": "tokenId",
          "type": "uint256"
        }
      ],
      "name": "approve",
      "outputs": [],
      "stateMutability": "nonpayable",
      "type": "function"
    },
    {
      "inputs": [
        {
          "internalType": "address",
          "name": "owner",
          "type": "address"
        }
      ],
      "name": "balanceOf",
      "outputs": [
        {
          "internalType": "uint256",
          "name": "",
          "type": "uint256"
        }
      ],
      "stateMutability": "view",
      "type": "function"
    },
    {
      "inputs": [],
      "name": "baseUri",
      "outputs": [
        {
          "internalType": "string",
          "name": "",
          "type": "string"
        }
      ],
      "stateMutability": "view",
      "type": "function"
    },
    {
      "inputs": [],
      "name": "cap",
      "outputs": [
        {
          "internalType": "uint256",
          "name": "",
          "type": "uint256"
        }
      ],
      "stateMutability": "view",
      "type": "function"
    },
    {
      "inputs": [
        {
          "internalType": "uint256",
          "name": "tokenId",
          "type": "uint256"
        }
      ],
      "name": "getApproved",
      "outputs": [
        {
          "internalType": "address",
          "name": "",
          "type": "address"
        }
      ],
      "stateMutability": "view",
      "type": "function"
    },
    {
      "inputs": [
        {
          "internalType": "bytes32",
          "name": "role",
          "type": "bytes32"
        }
      ],
      "name": "getRoleAdmin",
      "outputs": [
        {
          "internalType": "bytes32",
          "name": "",
          "type": "bytes32"
        }
      ],
      "stateMutability": "view",
      "type": "function"
    },
    {
      "inputs": [],
      "name": "ghostlistDuration",
      "outputs": [
        {
          "internalType": "uint256",
          "name": "",
          "type": "uint256"
        }
      ],
      "stateMutability": "view",
      "type": "function"
    },
    {
      "inputs": [],
      "name": "ghostlistRoot",
      "outputs": [
        {
          "internalType": "bytes32",
          "name": "",
          "type": "bytes32"
        }
      ],
      "stateMutability": "view",
      "type": "function"
    },
    {
      "inputs": [
        {
          "internalType": "bytes32",
          "name": "role",
          "type": "bytes32"
        },
        {
          "internalType": "address",
          "name": "account",
          "type": "address"
        }
      ],
      "name": "grantRole",
      "outputs": [],
      "stateMutability": "nonpayable",
      "type": "function"
    },
    {
      "inputs": [
        {
          "internalType": "bytes32",
          "name": "role",
          "type": "bytes32"
        },
        {
          "internalType": "address",
          "name": "account",
          "type": "address"
        }
      ],
      "name": "hasRole",
      "outputs": [
        {
          "internalType": "bool",
          "name": "",
          "type": "bool"
        }
      ],
      "stateMutability": "view",
      "type": "function"
    },
    {
      "inputs": [
        {
          "internalType": "address",
          "name": "owner",
          "type": "address"
        },
        {
          "internalType": "address",
          "name": "operator",
          "type": "address"
        }
      ],
      "name": "isApprovedForAll",
      "outputs": [
        {
          "internalType": "bool",
          "name": "",
          "type": "bool"
        }
      ],
      "stateMutability": "view",
      "type": "function"
    },
    {
      "inputs": [
        {
          "internalType": "address",
          "name": "account",
          "type": "address"
        },
        {
          "internalType": "bytes32[]",
          "name": "proof",
          "type": "bytes32[]"
        }
      ],
      "name": "isGhostlisted",
      "outputs": [
        {
          "internalType": "bool",
          "name": "",
          "type": "bool"
        }
      ],
      "stateMutability": "view",
      "type": "function"
    },
    {
      "inputs": [
        {
          "internalType": "bytes32[]",
          "name": "proof",
          "type": "bytes32[]"
        }
      ],
      "name": "mint",
      "outputs": [],
      "stateMutability": "payable",
      "type": "function"
    },
    {
      "inputs": [],
      "name": "mintPrice",
      "outputs": [
        {
          "internalType": "uint256",
          "name": "",
          "type": "uint256"
        }
      ],
      "stateMutability": "view",
      "type": "function"
    },
    {
      "inputs": [],
      "name": "mintStart",
      "outputs": [
        {
          "internalType": "uint256",
          "name": "",
          "type": "uint256"
        }
      ],
      "stateMutability": "view",
      "type": "function"
    },
    {
      "inputs": [
        {
          "internalType": "address",
          "name": "",
          "type": "address"
        }
      ],
      "name": "minterTokenId",
      "outputs": [
        {
          "internalType": "uint256",
          "name": "",
          "type": "uint256"
        }
      ],
      "stateMutability": "view",
      "type": "function"
    },
    {
      "inputs": [
        {
          "internalType": "bytes[]",
          "name": "data",
          "type": "bytes[]"
        }
      ],
      "name": "multicall",
      "outputs": [
        {
          "internalType": "bytes[]",
          "name": "results",
          "type": "bytes[]"
        }
      ],
      "stateMutability": "nonpayable",
      "type": "function"
    },
    {
      "inputs": [],
      "name": "name",
      "outputs": [
        {
          "internalType": "string",
          "name": "",
          "type": "string"
        }
      ],
      "stateMutability": "view",
      "type": "function"
    },
    {
      "inputs": [],
      "name": "owner",
      "outputs": [
        {
          "internalType": "address",
          "name": "",
          "type": "address"
        }
      ],
      "stateMutability": "view",
      "type": "function"
    },
    {
      "inputs": [
        {
          "internalType": "uint256",
          "name": "tokenId",
          "type": "uint256"
        }
      ],
      "name": "ownerOf",
      "outputs": [
        {
          "internalType": "address",
          "name": "",
          "type": "address"
        }
      ],
      "stateMutability": "view",
      "type": "function"
    },
    {
      "inputs": [],
      "name": "placeholderTokenUri",
      "outputs": [
        {
          "internalType": "string",
          "name": "",
          "type": "string"
        }
      ],
      "stateMutability": "view",
      "type": "function"
    },
    {
      "inputs": [
        {
          "internalType": "address",
          "name": "tokenId",
          "type": "address"
        },
        {
          "internalType": "address",
          "name": "recipient",
          "type": "address"
        },
        {
          "internalType": "uint256",
          "name": "amount",
          "type": "uint256"
        }
      ],
      "name": "recoverERC20",
      "outputs": [],
      "stateMutability": "nonpayable",
      "type": "function"
    },
    {
      "inputs": [
        {
          "internalType": "bytes32",
          "name": "role",
          "type": "bytes32"
        },
        {
          "internalType": "address",
          "name": "account",
          "type": "address"
        }
      ],
      "name": "renounceRole",
      "outputs": [],
      "stateMutability": "nonpayable",
      "type": "function"
    },
    {
      "inputs": [],
      "name": "reserved",
      "outputs": [
        {
          "internalType": "uint256",
          "name": "",
          "type": "uint256"
        }
      ],
      "stateMutability": "view",
      "type": "function"
    },
    {
      "inputs": [
        {
          "internalType": "bytes32",
          "name": "role",
          "type": "bytes32"
        },
        {
          "internalType": "address",
          "name": "account",
          "type": "address"
        }
      ],
      "name": "revokeRole",
      "outputs": [],
      "stateMutability": "nonpayable",
      "type": "function"
    },
    {
      "inputs": [
        {
          "internalType": "address",
          "name": "from",
          "type": "address"
        },
        {
          "internalType": "address",
          "name": "to",
          "type": "address"
        },
        {
          "internalType": "uint256",
          "name": "tokenId",
          "type": "uint256"
        }
      ],
      "name": "safeTransferFrom",
      "outputs": [],
      "stateMutability": "nonpayable",
      "type": "function"
    },
    {
      "inputs": [
        {
          "internalType": "address",
          "name": "from",
          "type": "address"
        },
        {
          "internalType": "address",
          "name": "to",
          "type": "address"
        },
        {
          "internalType": "uint256",
          "name": "tokenId",
          "type": "uint256"
        },
        {
          "internalType": "bytes",
          "name": "data",
          "type": "bytes"
        }
      ],
      "name": "safeTransferFrom",
      "outputs": [],
      "stateMutability": "nonpayable",
      "type": "function"
    },
    {
      "inputs": [
        {
          "internalType": "address",
          "name": "operator",
          "type": "address"
        },
        {
          "internalType": "bool",
          "name": "approved",
          "type": "bool"
        }
      ],
      "name": "setApprovalForAll",
      "outputs": [],
      "stateMutability": "nonpayable",
      "type": "function"
    },
    {
      "inputs": [
        {
          "internalType": "string",
          "name": "_baseUri",
          "type": "string"
        }
      ],
      "name": "setBaseURI",
      "outputs": [],
      "stateMutability": "nonpayable",
      "type": "function"
    },
    {
      "inputs": [
        {
          "internalType": "uint256",
          "name": "_ghostlistDuration",
          "type": "uint256"
        }
      ],
      "name": "setGhostlistDuration",
      "outputs": [],
      "stateMutability": "nonpayable",
      "type": "function"
    },
    {
      "inputs": [
        {
          "internalType": "bytes32",
          "name": "_ghostlistRoot",
          "type": "bytes32"
        }
      ],
      "name": "setGhostlistRoot",
      "outputs": [],
      "stateMutability": "nonpayable",
      "type": "function"
    },
    {
      "inputs": [
        {
          "internalType": "uint256",
          "name": "_mintStart",
          "type": "uint256"
        }
      ],
      "name": "setMintStart",
      "outputs": [],
      "stateMutability": "nonpayable",
      "type": "function"
    },
    {
      "inputs": [
        {
          "internalType": "bytes4",
          "name": "interfaceId",
          "type": "bytes4"
        }
      ],
      "name": "supportsInterface",
      "outputs": [
        {
          "internalType": "bool",
          "name": "",
          "type": "bool"
        }
      ],
      "stateMutability": "view",
      "type": "function"
    },
    {
      "inputs": [],
      "name": "symbol",
      "outputs": [
        {
          "internalType": "string",
          "name": "",
          "type": "string"
        }
      ],
      "stateMutability": "view",
      "type": "function"
    },
    {
      "inputs": [
        {
          "internalType": "uint256",
          "name": "index",
          "type": "uint256"
        }
      ],
      "name": "tokenByIndex",
      "outputs": [
        {
          "internalType": "uint256",
          "name": "",
          "type": "uint256"
        }
      ],
      "stateMutability": "view",
      "type": "function"
    },
    {
      "inputs": [
        {
          "internalType": "address",
          "name": "owner",
          "type": "address"
        },
        {
          "internalType": "uint256",
          "name": "index",
          "type": "uint256"
        }
      ],
      "name": "tokenOfOwnerByIndex",
      "outputs": [
        {
          "internalType": "uint256",
          "name": "",
          "type": "uint256"
        }
      ],
      "stateMutability": "view",
      "type": "function"
    },
    {
      "inputs": [
        {
          "internalType": "uint256",
          "name": "tokenId",
          "type": "uint256"
        }
      ],
      "name": "tokenURI",
      "outputs": [
        {
          "internalType": "string",
          "name": "",
          "type": "string"
        }
      ],
      "stateMutability": "view",
      "type": "function"
    },
    {
      "inputs": [],
      "name": "totalSupply",
      "outputs": [
        {
          "internalType": "uint256",
          "name": "",
          "type": "uint256"
        }
      ],
      "stateMutability": "view",
      "type": "function"
    },
    {
      "inputs": [
        {
          "internalType": "address",
          "name": "from",
          "type": "address"
        },
        {
          "internalType": "address",
          "name": "to",
          "type": "address"
        },
        {
          "internalType": "uint256",
          "name": "tokenId",
          "type": "uint256"
        }
      ],
      "name": "transferFrom",
      "outputs": [],
      "stateMutability": "nonpayable",
      "type": "function"
    },
    {
      "inputs": [],
      "name": "withdraw",
      "outputs": [],
      "stateMutability": "nonpayable",
      "type": "function"
    },
    {
      "stateMutability": "payable",
      "type": "receive"
    }
  ],
  "bytecode": "0x60c060405262015180600c556000801b600d5560405180602001604052806000815250600e9081620000329190620012d5565b503480156200004057600080fd5b50604051620079e1380380620079e18339818101604052810190620000669190620015ce565b6040518060400160405280600981526020017f47686f737420426f7900000000000000000000000000000000000000000000008152506040518060400160405280600581526020017f47484f53540000000000000000000000000000000000000000000000000000008152508181733cc6cdda760b79bafa08df41ecfa224f810dceb6600160006daaeb6d7670e522a718067333cd4e73ffffffffffffffffffffffffffffffffffffffff163b1115620002e0578015620001a6576daaeb6d7670e522a718067333cd4e73ffffffffffffffffffffffffffffffffffffffff16637d3e3dbe30846040518363ffffffff1660e01b81526004016200016c9291906200165a565b600060405180830381600087803b1580156200018757600080fd5b505af11580156200019c573d6000803e3d6000fd5b50505050620002df565b600073ffffffffffffffffffffffffffffffffffffffff168273ffffffffffffffffffffffffffffffffffffffff161462000260576daaeb6d7670e522a718067333cd4e73ffffffffffffffffffffffffffffffffffffffff1663a0af290330846040518363ffffffff1660e01b8152600401620002269291906200165a565b600060405180830381600087803b1580156200024157600080fd5b505af115801562000256573d6000803e3d6000fd5b50505050620002de565b6daaeb6d7670e522a718067333cd4e73ffffffffffffffffffffffffffffffffffffffff16634420e486306040518263ffffffff1660e01b8152600401620002a9919062001687565b600060405180830381600087803b158015620002c457600080fd5b505af1158015620002d9573d6000803e3d6000fd5b505050505b5b5b50508160009081620002f39190620012d5565b508060019081620003059190620012d5565b50505050506200031f6000801b846200052060201b60201c565b620003517f0b84ee281e5cf521a9ad54a86fafe78946b157177e231bd8ae785af4d3b3620f846200052060201b60201c565b620003837f33ced24247734ac36f5eccd70a678ac20efc99a63f7ae972c9394528cc9df85d846200052060201b60201c565b620003b57f2c0f3a1f2674808454a7f6386486a621d8c962df6d4c596d78176b79a98afc8d846200052060201b60201c565b620003e77f50358d54033371cd7c49ce476a9d4c06dff7774afe05888d4a22b287e1bfe7f4846200052060201b60201c565b620004287f33ced24247734ac36f5eccd70a678ac20efc99a63f7ae972c9394528cc9df85d6200041c6200061260201b60201c565b6200052060201b60201c565b620004697f2c0f3a1f2674808454a7f6386486a621d8c962df6d4c596d78176b79a98afc8d6200045d6200061260201b60201c565b6200052060201b60201c565b620004aa7f50358d54033371cd7c49ce476a9d4c06dff7774afe05888d4a22b287e1bfe7f46200049e6200061260201b60201c565b6200052060201b60201c565b8273ffffffffffffffffffffffffffffffffffffffff1660a08173ffffffffffffffffffffffffffffffffffffffff168152505080600f9081620004ef9190620012d5565b50816bffffffffffffffffffffffff166080818152505062000517836200061a60201b60201c565b50505062001a19565b6200053282826200065660201b60201c565b6200060e576001600a600084815260200190815260200160002060000160008373ffffffffffffffffffffffffffffffffffffffff1673ffffffffffffffffffffffffffffffffffffffff16815260200190815260200160002060006101000a81548160ff021916908315150217905550620005b36200061260201b60201c565b73ffffffffffffffffffffffffffffffffffffffff168173ffffffffffffffffffffffffffffffffffffffff16837f2f8788117e7eff1d82e926ec794901d17c78024a50270940304540a733656f0d60405160405180910390a45b5050565b600033905090565b600060019050600060805190505b6200063a8383620006c160201b60201c565b816200064690620016d3565b9150808211156200062857505050565b6000600a600084815260200190815260200160002060000160008373ffffffffffffffffffffffffffffffffffffffff1673ffffffffffffffffffffffffffffffffffffffff16815260200190815260200160002060009054906101000a900460ff16905092915050565b600073ffffffffffffffffffffffffffffffffffffffff168273ffffffffffffffffffffffffffffffffffffffff160362000733576040517f08c379a00000000000000000000000000000000000000000000000000000000081526004016200072a9062001781565b60405180910390fd5b62000744816200090760201b60201c565b1562000787576040517f08c379a00000000000000000000000000000000000000000000000000000000081526004016200077e90620017f3565b60405180910390fd5b6200079d6000838360016200095060201b60201c565b620007ae816200090760201b60201c565b15620007f1576040517f08c379a0000000000000000000000000000000000000000000000000000000008152600401620007e890620017f3565b60405180910390fd5b6001600360008473ffffffffffffffffffffffffffffffffffffffff1673ffffffffffffffffffffffffffffffffffffffff16815260200190815260200160002060008282540192505081905550816002600083815260200190815260200160002060006101000a81548173ffffffffffffffffffffffffffffffffffffffff021916908373ffffffffffffffffffffffffffffffffffffffff160217905550808273ffffffffffffffffffffffffffffffffffffffff16600073ffffffffffffffffffffffffffffffffffffffff167fddf252ad1be2c89b69c2b068fc378daa952ba7f163c4a11628f55a4df523b3ef60405160405180910390a4620009036000838360016200096f60201b60201c565b5050565b60008073ffffffffffffffffffffffffffffffffffffffff1662000931836200097560201b60201c565b73ffffffffffffffffffffffffffffffffffffffff1614159050919050565b6200096984848484620009b260201b62001bb51760201c565b50505050565b50505050565b60006002600083815260200190815260200160002060009054906101000a900473ffffffffffffffffffffffffffffffffffffffff169050919050565b620009cb8484848462000b4660201b62001d131760201c565b600181111562000a12576040517f08c379a000000000000000000000000000000000000000000000000000000000815260040162000a09906200188b565b60405180910390fd5b6000829050600073ffffffffffffffffffffffffffffffffffffffff168573ffffffffffffffffffffffffffffffffffffffff160362000a635762000a5d8162000c7360201b60201c565b62000aab565b8373ffffffffffffffffffffffffffffffffffffffff168573ffffffffffffffffffffffffffffffffffffffff161462000aaa5762000aa9858262000cbc60201b60201c565b5b5b600073ffffffffffffffffffffffffffffffffffffffff168473ffffffffffffffffffffffffffffffffffffffff160362000af75762000af18162000e3960201b60201c565b62000b3f565b8473ffffffffffffffffffffffffffffffffffffffff168473ffffffffffffffffffffffffffffffffffffffff161462000b3e5762000b3d848262000f1560201b60201c565b5b5b5050505050565b600181111562000c6d57600073ffffffffffffffffffffffffffffffffffffffff168473ffffffffffffffffffffffffffffffffffffffff161462000bde5780600360008673ffffffffffffffffffffffffffffffffffffffff1673ffffffffffffffffffffffffffffffffffffffff168152602001908152602001600020600082825462000bd69190620018ad565b925050819055505b600073ffffffffffffffffffffffffffffffffffffffff168373ffffffffffffffffffffffffffffffffffffffff161462000c6c5780600360008573ffffffffffffffffffffffffffffffffffffffff1673ffffffffffffffffffffffffffffffffffffffff168152602001908152602001600020600082825462000c649190620018e8565b925050819055505b5b50505050565b6008805490506009600083815260200190815260200160002081905550600881908060018154018082558091505060019003906000526020600020016000909190919091505550565b6000600162000cd68462000fa160201b6200120c1760201c565b62000ce29190620018ad565b905060006007600084815260200190815260200160002054905081811462000dc8576000600660008673ffffffffffffffffffffffffffffffffffffffff1673ffffffffffffffffffffffffffffffffffffffff168152602001908152602001600020600084815260200190815260200160002054905080600660008773ffffffffffffffffffffffffffffffffffffffff1673ffffffffffffffffffffffffffffffffffffffff168152602001908152602001600020600084815260200190815260200160002081905550816007600083815260200190815260200160002081905550505b6007600084815260200190815260200160002060009055600660008573ffffffffffffffffffffffffffffffffffffffff1673ffffffffffffffffffffffffffffffffffffffff16815260200190815260200160002060008381526020019081526020016000206000905550505050565b6000600160088054905062000e4f9190620018ad565b905060006009600084815260200190815260200160002054905060006008838154811062000e825762000e8162001923565b5b90600052602060002001549050806008838154811062000ea75762000ea662001923565b5b90600052602060002001819055508160096000838152602001908152602001600020819055506009600085815260200190815260200160002060009055600880548062000ef95762000ef862001952565b5b6001900381819060005260206000200160009055905550505050565b600062000f2d8362000fa160201b6200120c1760201c565b905081600660008573ffffffffffffffffffffffffffffffffffffffff1673ffffffffffffffffffffffffffffffffffffffff168152602001908152602001600020600083815260200190815260200160002081905550806007600084815260200190815260200160002081905550505050565b60008073ffffffffffffffffffffffffffffffffffffffff168273ffffffffffffffffffffffffffffffffffffffff160362001014576040517f08c379a00000000000000000000000000000000000000000000000000000000081526004016200100b90620019f7565b60405180910390fd5b600360008373ffffffffffffffffffffffffffffffffffffffff1673ffffffffffffffffffffffffffffffffffffffff168152602001908152602001600020549050919050565b600081519050919050565b7f4e487b7100000000000000000000000000000000000000000000000000000000600052604160045260246000fd5b7f4e487b7100000000000000000000000000000000000000000000000000000000600052602260045260246000fd5b60006002820490506001821680620010dd57607f821691505b602082108103620010f357620010f262001095565b5b50919050565b60008190508160005260206000209050919050565b60006020601f8301049050919050565b600082821b905092915050565b6000600883026200115d7fffffffffffffffffffffffffffffffffffffffffffffffffffffffffffffffff826200111e565b6200116986836200111e565b95508019841693508086168417925050509392505050565b6000819050919050565b6000819050919050565b6000620011b6620011b0620011aa8462001181565b6200118b565b62001181565b9050919050565b6000819050919050565b620011d28362001195565b620011ea620011e182620011bd565b8484546200112b565b825550505050565b600090565b62001201620011f2565b6200120e818484620011c7565b505050565b5b8181101562001236576200122a600082620011f7565b60018101905062001214565b5050565b601f82111562001285576200124f81620010f9565b6200125a846200110e565b810160208510156200126a578190505b6200128262001279856200110e565b83018262001213565b50505b505050565b600082821c905092915050565b6000620012aa600019846008026200128a565b1980831691505092915050565b6000620012c5838362001297565b9150826002028217905092915050565b620012e0826200105b565b67ffffffffffffffff811115620012fc57620012fb62001066565b5b620013088254620010c4565b620013158282856200123a565b600060209050601f8311600181146200134d576000841562001338578287015190505b620013448582620012b7565b865550620013b4565b601f1984166200135d86620010f9565b60005b82811015620013875784890151825560018201915060208501945060208101905062001360565b86831015620013a75784890151620013a3601f89168262001297565b8355505b6001600288020188555050505b505050505050565b6000604051905090565b600080fd5b600080fd5b600073ffffffffffffffffffffffffffffffffffffffff82169050919050565b6000620013fd82620013d0565b9050919050565b6200140f81620013f0565b81146200141b57600080fd5b50565b6000815190506200142f8162001404565b92915050565b60006bffffffffffffffffffffffff82169050919050565b620014588162001435565b81146200146457600080fd5b50565b60008151905062001478816200144d565b92915050565b600080fd5b600080fd5b6000601f19601f8301169050919050565b620014a48262001488565b810181811067ffffffffffffffff82111715620014c657620014c562001066565b5b80604052505050565b6000620014db620013bc565b9050620014e9828262001499565b919050565b600067ffffffffffffffff8211156200150c576200150b62001066565b5b620015178262001488565b9050602081019050919050565b60005b838110156200154457808201518184015260208101905062001527565b60008484015250505050565b6000620015676200156184620014ee565b620014cf565b90508281526020810184848401111562001586576200158562001483565b5b6200159384828562001524565b509392505050565b600082601f830112620015b357620015b26200147e565b5b8151620015c584826020860162001550565b91505092915050565b600080600060608486031215620015ea57620015e9620013c6565b5b6000620015fa868287016200141e565b93505060206200160d8682870162001467565b925050604084015167ffffffffffffffff811115620016315762001630620013cb565b5b6200163f868287016200159b565b9150509250925092565b6200165481620013f0565b82525050565b600060408201905062001671600083018562001649565b62001680602083018462001649565b9392505050565b60006020820190506200169e600083018462001649565b92915050565b7f4e487b7100000000000000000000000000000000000000000000000000000000600052601160045260246000fd5b6000620016e08262001181565b91507fffffffffffffffffffffffffffffffffffffffffffffffffffffffffffffffff8203620017155762001714620016a4565b5b600182019050919050565b600082825260208201905092915050565b7f4552433732313a206d696e7420746f20746865207a65726f2061646472657373600082015250565b60006200176960208362001720565b9150620017768262001731565b602082019050919050565b600060208201905081810360008301526200179c816200175a565b9050919050565b7f4552433732313a20746f6b656e20616c7265616479206d696e74656400000000600082015250565b6000620017db601c8362001720565b9150620017e882620017a3565b602082019050919050565b600060208201905081810360008301526200180e81620017cc565b9050919050565b7f455243373231456e756d657261626c653a20636f6e736563757469766520747260008201527f616e7366657273206e6f7420737570706f727465640000000000000000000000602082015250565b60006200187360358362001720565b9150620018808262001815565b604082019050919050565b60006020820190508181036000830152620018a68162001864565b9050919050565b6000620018ba8262001181565b9150620018c78362001181565b9250828203905081811115620018e257620018e1620016a4565b5b92915050565b6000620018f58262001181565b9150620019028362001181565b92508282019050808211156200191d576200191c620016a4565b5b92915050565b7f4e487b7100000000000000000000000000000000000000000000000000000000600052603260045260246000fd5b7f4e487b7100000000000000000000000000000000000000000000000000000000600052603160045260246000fd5b7f4552433732313a2061646472657373207a65726f206973206e6f74206120766160008201527f6c6964206f776e65720000000000000000000000000000000000000000000000602082015250565b6000620019df60298362001720565b9150620019ec8262001981565b604082019050919050565b6000602082019050818103600083015262001a1281620019d0565b9050919050565b60805160a051615f9b62001a46600039600081816113f10152611b6f01526000611b930152615f9b6000f3fe60806040526004361061028c5760003560e01c806363eae6e41161015a578063a217fddf116100c1578063c87b56dd1161007a578063c87b56dd14610a06578063d547741f14610a43578063e985e9c514610a6c578063ecdd78ae14610aa9578063fd243da314610ad4578063fe60d12c14610aff57610293565b8063a217fddf14610905578063a22cb46514610930578063ac9650d814610959578063b254943914610996578063b77a147b146109c1578063b88d4fde146109dd57610293565b8063759bfd9311610113578063759bfd93146107f55780637960c27f1461081e5780638da5cb5b1461084757806391d148541461087257806395d89b41146108af5780639abc8320146108da57610293565b806363eae6e4146106d157806365566833146106fc5780636817c76c1461072557806370a082311461075057806371fa036a1461078d5780637229c618146107b857610293565b80632f745c59116101fe57806342842e0e116101b757806342842e0e146105af5780634cf5f7a4146105d85780634ed67f81146106035780634f6ccce71461062e57806355f804b31461066b5780636352211e1461069457610293565b80632f745c59146104b15780632f83a6bc146104ee578063355274ea1461051957806336568abe146105445780633ccfd60b1461056d57806341f434341461058457610293565b806318160ddd1161025057806318160ddd1461038f57806323b872dd146103ba578063248a9ca3146103e3578063255e46851461042057806326f5608b1461044b5780632f2ff15d1461048857610293565b806301ffc9a71461029857806306fdde03146102d5578063081812fc14610300578063095ea7b31461033d5780631171bda91461036657610293565b3661029357005b600080fd5b3480156102a457600080fd5b506102bf60048036038101906102ba9190614016565b610b2a565b6040516102cc919061405e565b60405180910390f35b3480156102e157600080fd5b506102ea610b3c565b6040516102f79190614109565b60405180910390f35b34801561030c57600080fd5b5061032760048036038101906103229190614161565b610bce565b60405161033491906141cf565b60405180910390f35b34801561034957600080fd5b50610364600480360381019061035f9190614216565b610c14565b005b34801561037257600080fd5b5061038d60048036038101906103889190614256565b610c2d565b005b34801561039b57600080fd5b506103a4610c68565b6040516103b191906142b8565b60405180910390f35b3480156103c657600080fd5b506103e160048036038101906103dc9190614256565b610c75565b005b3480156103ef57600080fd5b5061040a60048036038101906104059190614309565b610cc4565b6040516104179190614345565b60405180910390f35b34801561042c57600080fd5b50610435610ce4565b60405161044291906142b8565b60405180910390f35b34801561045757600080fd5b50610472600480360381019061046d91906143c5565b610cea565b60405161047f919061405e565b60405180910390f35b34801561049457600080fd5b506104af60048036038101906104aa9190614425565b610d73565b005b3480156104bd57600080fd5b506104d860048036038101906104d39190614216565b610d94565b6040516104e591906142b8565b60405180910390f35b3480156104fa57600080fd5b50610503610e39565b6040516105109190614345565b60405180910390f35b34801561052557600080fd5b5061052e610e5d565b60405161053b91906142b8565b60405180910390f35b34801561055057600080fd5b5061056b60048036038101906105669190614425565b610e63565b005b34801561057957600080fd5b50610582610ee6565b005b34801561059057600080fd5b50610599610f3c565b6040516105a691906144c4565b60405180910390f35b3480156105bb57600080fd5b506105d660048036038101906105d19190614256565b610f4e565b005b3480156105e457600080fd5b506105ed610f9d565b6040516105fa9190614109565b60405180910390f35b34801561060f57600080fd5b5061061861102b565b60405161062591906142b8565b60405180910390f35b34801561063a57600080fd5b5061065560048036038101906106509190614161565b611031565b60405161066291906142b8565b60405180910390f35b34801561067757600080fd5b50610692600480360381019061068d919061460f565b6110a2565b005b3480156106a057600080fd5b506106bb60048036038101906106b69190614161565b6110e0565b6040516106c891906141cf565b60405180910390f35b3480156106dd57600080fd5b506106e6611166565b6040516106f39190614345565b60405180910390f35b34801561070857600080fd5b50610723600480360381019061071e9190614309565b61118a565b005b34801561073157600080fd5b5061073a611201565b60405161074791906142b8565b60405180910390f35b34801561075c57600080fd5b5061077760048036038101906107729190614658565b61120c565b60405161078491906142b8565b60405180910390f35b34801561079957600080fd5b506107a26112c3565b6040516107af9190614345565b60405180910390f35b3480156107c457600080fd5b506107df60048036038101906107da9190614658565b6112e7565b6040516107ec91906142b8565b60405180910390f35b34801561080157600080fd5b5061081c60048036038101906108179190614161565b6112ff565b005b34801561082a57600080fd5b5061084560048036038101906108409190614161565b611376565b005b34801561085357600080fd5b5061085c6113ed565b60405161086991906141cf565b60405180910390f35b34801561087e57600080fd5b5061089960048036038101906108949190614425565b611415565b6040516108a6919061405e565b60405180910390f35b3480156108bb57600080fd5b506108c4611480565b6040516108d19190614109565b60405180910390f35b3480156108e657600080fd5b506108ef611512565b6040516108fc9190614109565b60405180910390f35b34801561091157600080fd5b5061091a6115a0565b6040516109279190614345565b60405180910390f35b34801561093c57600080fd5b50610957600480360381019061095291906146b1565b6115a7565b005b34801561096557600080fd5b50610980600480360381019061097b9190614747565b6115c0565b60405161098d91906148ab565b60405180910390f35b3480156109a257600080fd5b506109ab6116cc565b6040516109b89190614345565b60405180910390f35b6109db60048036038101906109d691906148cd565b6116d2565b005b3480156109e957600080fd5b50610a0460048036038101906109ff91906149bb565b61196e565b005b348015610a1257600080fd5b50610a2d6004803603810190610a289190614161565b6119bf565b604051610a3a9190614109565b60405180910390f35b348015610a4f57600080fd5b50610a6a6004803603810190610a659190614425565b611a94565b005b348015610a7857600080fd5b50610a936004803603810190610a8e9190614a3e565b611ab5565b604051610aa0919061405e565b60405180910390f35b348015610ab557600080fd5b50610abe611b49565b604051610acb9190614345565b60405180910390f35b348015610ae057600080fd5b50610ae9611b6d565b604051610af691906141cf565b60405180910390f35b348015610b0b57600080fd5b50610b14611b91565b604051610b2191906142b8565b60405180910390f35b6000610b3582611e39565b9050919050565b606060008054610b4b90614aad565b80601f0160208091040260200160405190810160405280929190818152602001828054610b7790614aad565b8015610bc45780601f10610b9957610100808354040283529160200191610bc4565b820191906000526020600020905b815481529060010190602001808311610ba757829003601f168201915b5050505050905090565b6000610bd982611e4b565b6004600083815260200190815260200160002060009054906101000a900473ffffffffffffffffffffffffffffffffffffffff169050919050565b81610c1e81611e96565b610c288383611f93565b505050565b7f0b84ee281e5cf521a9ad54a86fafe78946b157177e231bd8ae785af4d3b3620f610c57816120aa565b610c628484846120be565b50505050565b6000600880549050905090565b823373ffffffffffffffffffffffffffffffffffffffff168173ffffffffffffffffffffffffffffffffffffffff1614610cb357610cb233611e96565b5b610cbe848484612154565b50505050565b6000600a6000838152602001908152602001600020600101549050919050565b600b5481565b6000610d6a600d5485604051602001610d039190614b26565b60405160208183030381529060405280519060200120858580806020026020016040519081016040528093929190818152602001838360200280828437600081840152601f19601f820116905080830192505050505050506121b49092919063ffffffff16565b90509392505050565b610d7c82610cc4565b610d85816120aa565b610d8f83836121cb565b505050565b6000610d9f8361120c565b8210610de0576040517f08c379a0000000000000000000000000000000000000000000000000000000008152600401610dd790614bb3565b60405180910390fd5b600660008473ffffffffffffffffffffffffffffffffffffffff1673ffffffffffffffffffffffffffffffffffffffff168152602001908152602001600020600083815260200190815260200160002054905092915050565b7f0b84ee281e5cf521a9ad54a86fafe78946b157177e231bd8ae785af4d3b3620f81565b611a0a81565b610e6b6122ac565b73ffffffffffffffffffffffffffffffffffffffff168173ffffffffffffffffffffffffffffffffffffffff1614610ed8576040517f08c379a0000000000000000000000000000000000000000000000000000000008152600401610ecf90614c45565b60405180910390fd5b610ee282826122b4565b5050565b7f0b84ee281e5cf521a9ad54a86fafe78946b157177e231bd8ae785af4d3b3620f610f10816120aa565b610f39473373ffffffffffffffffffffffffffffffffffffffff1661239690919063ffffffff16565b50565b6daaeb6d7670e522a718067333cd4e81565b823373ffffffffffffffffffffffffffffffffffffffff168173ffffffffffffffffffffffffffffffffffffffff1614610f8c57610f8b33611e96565b5b610f9784848461248a565b50505050565b600f8054610faa90614aad565b80601f0160208091040260200160405190810160405280929190818152602001828054610fd690614aad565b80156110235780601f10610ff857610100808354040283529160200191611023565b820191906000526020600020905b81548152906001019060200180831161100657829003601f168201915b505050505081565b600c5481565b600061103b610c68565b821061107c576040517f08c379a000000000000000000000000000000000000000000000000000000000815260040161107390614cd7565b60405180910390fd5b600882815481106110905761108f614cf7565b5b90600052602060002001549050919050565b7f33ced24247734ac36f5eccd70a678ac20efc99a63f7ae972c9394528cc9df85d6110cc816120aa565b81600e90816110db9190614ec8565b505050565b6000806110ec836124aa565b9050600073ffffffffffffffffffffffffffffffffffffffff168173ffffffffffffffffffffffffffffffffffffffff160361115d576040517f08c379a000000000000000000000000000000000000000000000000000000000815260040161115490614fe6565b60405180910390fd5b80915050919050565b7f33ced24247734ac36f5eccd70a678ac20efc99a63f7ae972c9394528cc9df85d81565b7f50358d54033371cd7c49ce476a9d4c06dff7774afe05888d4a22b287e1bfe7f46111b4816120aa565b81600d5403156111fd5781600d819055507fed778ae4fa565f55887f852003015461a42158be913a1ba7f13d359f20c227bf826040516111f49190614345565b60405180910390a15b5050565b6658d15e1762800081565b60008073ffffffffffffffffffffffffffffffffffffffff168273ffffffffffffffffffffffffffffffffffffffff160361127c576040517f08c379a000000000000000000000000000000000000000000000000000000000815260040161127390615078565b60405180910390fd5b600360008373ffffffffffffffffffffffffffffffffffffffff1673ffffffffffffffffffffffffffffffffffffffff168152602001908152602001600020549050919050565b7f2c0f3a1f2674808454a7f6386486a621d8c962df6d4c596d78176b79a98afc8d81565b60106020528060005260406000206000915090505481565b7f2c0f3a1f2674808454a7f6386486a621d8c962df6d4c596d78176b79a98afc8d611329816120aa565b81600c5403156113725781600c819055507fd3ec68698a05bb514b73955daacf9766a746a7e821fd9751d9e026a64fad5bba8260405161136991906142b8565b60405180910390a15b5050565b7f2c0f3a1f2674808454a7f6386486a621d8c962df6d4c596d78176b79a98afc8d6113a0816120aa565b81600b5403156113e95781600b819055507fbe977e2c218adf4c3954453b9aa8652a0d74138398cfb00edb351584019fa51c826040516113e091906142b8565b60405180910390a15b5050565b60007f0000000000000000000000000000000000000000000000000000000000000000905090565b6000600a600084815260200190815260200160002060000160008373ffffffffffffffffffffffffffffffffffffffff1673ffffffffffffffffffffffffffffffffffffffff16815260200190815260200160002060009054906101000a900460ff16905092915050565b60606001805461148f90614aad565b80601f01602080910402602001604051908101604052809291908181526020018280546114bb90614aad565b80156115085780601f106114dd57610100808354040283529160200191611508565b820191906000526020600020905b8154815290600101906020018083116114eb57829003601f168201915b5050505050905090565b600e805461151f90614aad565b80601f016020809104026020016040519081016040528092919081815260200182805461154b90614aad565b80156115985780601f1061156d57610100808354040283529160200191611598565b820191906000526020600020905b81548152906001019060200180831161157b57829003601f168201915b505050505081565b6000801b81565b816115b181611e96565b6115bb83836124e7565b505050565b60608282905067ffffffffffffffff8111156115df576115de6144e4565b5b60405190808252806020026020018201604052801561161257816020015b60608152602001906001900390816115fd5790505b50905060005b838390508110156116c5576116943085858481811061163a57611639614cf7565b5b905060200281019061164c91906150a7565b8080601f016020809104026020016040519081016040528093929190818152602001838380828437600081840152601f19601f820116905080830192505050505050506124fd565b8282815181106116a7576116a6614cf7565b5b602002602001018190525080806116bd90615139565b915050611618565b5092915050565b600d5481565b6658d15e1762800034101561172757346658d15e176280006040517f4c41215f00000000000000000000000000000000000000000000000000000000815260040161171e929190615181565b60405180910390fd5b6000600b54905060008103611776576000806040517f5d5f4e4400000000000000000000000000000000000000000000000000000000815260040161176d9291906151e5565b60405180910390fd5b6000429050818110156117c3578160006040517f5d5f4e440000000000000000000000000000000000000000000000000000000081526004016117ba92919061520e565b60405180910390fd5b60006117cd6122ac565b9050600c54836117dd9190615237565b821015611840576117ef818686610cea565b61183f5782600c54846118029190615237565b6040517f5d5f4e44000000000000000000000000000000000000000000000000000000008152600401611836929190615181565b60405180910390fd5b5b6000601060008373ffffffffffffffffffffffffffffffffffffffff1673ffffffffffffffffffffffffffffffffffffffff16815260200190815260200160002054146118c457806040517fef3654990000000000000000000000000000000000000000000000000000000081526004016118bb91906141cf565b60405180910390fd5b600060016118d0610c68565b6118da9190615237565b905080601060008473ffffffffffffffffffffffffffffffffffffffff1673ffffffffffffffffffffffffffffffffffffffff16815260200190815260200160002081905550611a0a81111561195c576040517f0e2a625000000000000000000000000000000000000000000000000000000000815260040160405180910390fd5b611966828261252a565b505050505050565b833373ffffffffffffffffffffffffffffffffffffffff168173ffffffffffffffffffffffffffffffffffffffff16146119ac576119ab33611e96565b5b6119b885858585612548565b5050505050565b606060006119cc836125aa565b9050600081511115611a0057806040516020016119e991906152f3565b604051602081830303815290604052915050611a8f565b600f8054611a0d90614aad565b80601f0160208091040260200160405190810160405280929190818152602001828054611a3990614aad565b8015611a865780601f10611a5b57610100808354040283529160200191611a86565b820191906000526020600020905b815481529060010190602001808311611a6957829003601f168201915b50505050509150505b919050565b611a9d82610cc4565b611aa6816120aa565b611ab083836122b4565b505050565b6000600560008473ffffffffffffffffffffffffffffffffffffffff1673ffffffffffffffffffffffffffffffffffffffff16815260200190815260200160002060008373ffffffffffffffffffffffffffffffffffffffff1673ffffffffffffffffffffffffffffffffffffffff16815260200190815260200160002060009054906101000a900460ff16905092915050565b7f50358d54033371cd7c49ce476a9d4c06dff7774afe05888d4a22b287e1bfe7f481565b7f000000000000000000000000000000000000000000000000000000000000000081565b7f000000000000000000000000000000000000000000000000000000000000000081565b611bc184848484611d13565b6001811115611c05576040517f08c379a0000000000000000000000000000000000000000000000000000000008152600401611bfc90615387565b60405180910390fd5b6000829050600073ffffffffffffffffffffffffffffffffffffffff168573ffffffffffffffffffffffffffffffffffffffff1603611c4c57611c4781612612565b611c8b565b8373ffffffffffffffffffffffffffffffffffffffff168573ffffffffffffffffffffffffffffffffffffffff1614611c8a57611c89858261265b565b5b5b600073ffffffffffffffffffffffffffffffffffffffff168473ffffffffffffffffffffffffffffffffffffffff1603611ccd57611cc8816127c8565b611d0c565b8473ffffffffffffffffffffffffffffffffffffffff168473ffffffffffffffffffffffffffffffffffffffff1614611d0b57611d0a8482612899565b5b5b5050505050565b6001811115611e3357600073ffffffffffffffffffffffffffffffffffffffff168473ffffffffffffffffffffffffffffffffffffffff1614611da75780600360008673ffffffffffffffffffffffffffffffffffffffff1673ffffffffffffffffffffffffffffffffffffffff1681526020019081526020016000206000828254611d9f91906153a7565b925050819055505b600073ffffffffffffffffffffffffffffffffffffffff168373ffffffffffffffffffffffffffffffffffffffff1614611e325780600360008573ffffffffffffffffffffffffffffffffffffffff1673ffffffffffffffffffffffffffffffffffffffff1681526020019081526020016000206000828254611e2a9190615237565b925050819055505b5b50505050565b6000611e4482612918565b9050919050565b611e5481612992565b611e93576040517f08c379a0000000000000000000000000000000000000000000000000000000008152600401611e8a90614fe6565b60405180910390fd5b50565b60006daaeb6d7670e522a718067333cd4e73ffffffffffffffffffffffffffffffffffffffff163b1115611f90576daaeb6d7670e522a718067333cd4e73ffffffffffffffffffffffffffffffffffffffff1663c617113430836040518363ffffffff1660e01b8152600401611f0d9291906153db565b602060405180830381865afa158015611f2a573d6000803e3d6000fd5b505050506040513d601f19601f82011682018060405250810190611f4e9190615419565b611f8f57806040517fede71dcc000000000000000000000000000000000000000000000000000000008152600401611f8691906141cf565b60405180910390fd5b5b50565b6000611f9e826110e0565b90508073ffffffffffffffffffffffffffffffffffffffff168373ffffffffffffffffffffffffffffffffffffffff160361200e576040517f08c379a0000000000000000000000000000000000000000000000000000000008152600401612005906154b8565b60405180910390fd5b8073ffffffffffffffffffffffffffffffffffffffff1661202d6122ac565b73ffffffffffffffffffffffffffffffffffffffff16148061205c575061205b816120566122ac565b611ab5565b5b61209b576040517f08c379a00000000000000000000000000000000000000000000000000000000081526004016120929061554a565b60405180910390fd5b6120a583836129d3565b505050565b6120bb816120b66122ac565b612a8c565b50565b600073ffffffffffffffffffffffffffffffffffffffff168373ffffffffffffffffffffffffffffffffffffffff1603612124576040517fcb59f26700000000000000000000000000000000000000000000000000000000815260040160405180910390fd5b61214f82828573ffffffffffffffffffffffffffffffffffffffff16612b119092919063ffffffff16565b505050565b61216561215f6122ac565b82612b97565b6121a4576040517f08c379a000000000000000000000000000000000000000000000000000000000815260040161219b906155dc565b60405180910390fd5b6121af838383612c2c565b505050565b6000826121c18584612f25565b1490509392505050565b6121d58282611415565b6122a8576001600a600084815260200190815260200160002060000160008373ffffffffffffffffffffffffffffffffffffffff1673ffffffffffffffffffffffffffffffffffffffff16815260200190815260200160002060006101000a81548160ff02191690831515021790555061224d6122ac565b73ffffffffffffffffffffffffffffffffffffffff168173ffffffffffffffffffffffffffffffffffffffff16837f2f8788117e7eff1d82e926ec794901d17c78024a50270940304540a733656f0d60405160405180910390a45b5050565b600033905090565b6122be8282611415565b15612392576000600a600084815260200190815260200160002060000160008373ffffffffffffffffffffffffffffffffffffffff1673ffffffffffffffffffffffffffffffffffffffff16815260200190815260200160002060006101000a81548160ff0219169083151502179055506123376122ac565b73ffffffffffffffffffffffffffffffffffffffff168173ffffffffffffffffffffffffffffffffffffffff16837ff6391f5c32d9c69d2a47ea670b442974b53935d1edc7fd64eb21e047a839171b60405160405180910390a45b5050565b804710156123d9576040517f08c379a00000000000000000000000000000000000000000000000000000000081526004016123d090615648565b60405180910390fd5b60008273ffffffffffffffffffffffffffffffffffffffff16826040516123ff90615699565b60006040518083038185875af1925050503d806000811461243c576040519150601f19603f3d011682016040523d82523d6000602084013e612441565b606091505b5050905080612485576040517f08c379a000000000000000000000000000000000000000000000000000000000815260040161247c90615720565b60405180910390fd5b505050565b6124a58383836040518060200160405280600081525061196e565b505050565b60006002600083815260200190815260200160002060009054906101000a900473ffffffffffffffffffffffffffffffffffffffff169050919050565b6124f96124f26122ac565b8383612f7b565b5050565b60606125228383604051806060016040528060278152602001615f3f602791396130e7565b905092915050565b61254482826040518060200160405280600081525061316d565b5050565b6125596125536122ac565b83612b97565b612598576040517f08c379a000000000000000000000000000000000000000000000000000000000815260040161258f906155dc565b60405180910390fd5b6125a4848484846131c8565b50505050565b60606125b582611e4b565b60006125bf613224565b905060008151116125df576040518060200160405280600081525061260a565b806125e9846132b6565b6040516020016125fa929190615740565b6040516020818303038152906040525b915050919050565b6008805490506009600083815260200190815260200160002081905550600881908060018154018082558091505060019003906000526020600020016000909190919091505550565b600060016126688461120c565b61267291906153a7565b9050600060076000848152602001908152602001600020549050818114612757576000600660008673ffffffffffffffffffffffffffffffffffffffff1673ffffffffffffffffffffffffffffffffffffffff168152602001908152602001600020600084815260200190815260200160002054905080600660008773ffffffffffffffffffffffffffffffffffffffff1673ffffffffffffffffffffffffffffffffffffffff168152602001908152602001600020600084815260200190815260200160002081905550816007600083815260200190815260200160002081905550505b6007600084815260200190815260200160002060009055600660008573ffffffffffffffffffffffffffffffffffffffff1673ffffffffffffffffffffffffffffffffffffffff16815260200190815260200160002060008381526020019081526020016000206000905550505050565b600060016008805490506127dc91906153a7565b905060006009600084815260200190815260200160002054905060006008838154811061280c5761280b614cf7565b5b90600052602060002001549050806008838154811061282e5761282d614cf7565b5b90600052602060002001819055508160096000838152602001908152602001600020819055506009600085815260200190815260200160002060009055600880548061287d5761287c615764565b5b6001900381819060005260206000200160009055905550505050565b60006128a48361120c565b905081600660008573ffffffffffffffffffffffffffffffffffffffff1673ffffffffffffffffffffffffffffffffffffffff168152602001908152602001600020600083815260200190815260200160002081905550806007600084815260200190815260200160002081905550505050565b60007f7965db0b000000000000000000000000000000000000000000000000000000007bffffffffffffffffffffffffffffffffffffffffffffffffffffffff1916827bffffffffffffffffffffffffffffffffffffffffffffffffffffffff1916148061298b575061298a82613384565b5b9050919050565b60008073ffffffffffffffffffffffffffffffffffffffff166129b4836124aa565b73ffffffffffffffffffffffffffffffffffffffff1614159050919050565b816004600083815260200190815260200160002060006101000a81548173ffffffffffffffffffffffffffffffffffffffff021916908373ffffffffffffffffffffffffffffffffffffffff160217905550808273ffffffffffffffffffffffffffffffffffffffff16612a46836110e0565b73ffffffffffffffffffffffffffffffffffffffff167f8c5be1e5ebec7d5bd14f71427d1e84f3dd0314c0f7b2291e5b200ac8c7c3b92560405160405180910390a45050565b612a968282611415565b612b0d57612aa381613396565b612ab18360001c60206133c3565b604051602001612ac292919061582b565b6040516020818303038152906040526040517f08c379a0000000000000000000000000000000000000000000000000000000008152600401612b049190614109565b60405180910390fd5b5050565b612b928363a9059cbb60e01b8484604051602401612b30929190615865565b604051602081830303815290604052907bffffffffffffffffffffffffffffffffffffffffffffffffffffffff19166020820180517bffffffffffffffffffffffffffffffffffffffffffffffffffffffff83818316178352505050506135ff565b505050565b600080612ba3836110e0565b90508073ffffffffffffffffffffffffffffffffffffffff168473ffffffffffffffffffffffffffffffffffffffff161480612be55750612be48185611ab5565b5b80612c2357508373ffffffffffffffffffffffffffffffffffffffff16612c0b84610bce565b73ffffffffffffffffffffffffffffffffffffffff16145b91505092915050565b8273ffffffffffffffffffffffffffffffffffffffff16612c4c826110e0565b73ffffffffffffffffffffffffffffffffffffffff1614612ca2576040517f08c379a0000000000000000000000000000000000000000000000000000000008152600401612c9990615900565b60405180910390fd5b600073ffffffffffffffffffffffffffffffffffffffff168273ffffffffffffffffffffffffffffffffffffffff1603612d11576040517f08c379a0000000000000000000000000000000000000000000000000000000008152600401612d0890615992565b60405180910390fd5b612d1e83838360016136c6565b8273ffffffffffffffffffffffffffffffffffffffff16612d3e826110e0565b73ffffffffffffffffffffffffffffffffffffffff1614612d94576040517f08c379a0000000000000000000000000000000000000000000000000000000008152600401612d8b90615900565b60405180910390fd5b6004600082815260200190815260200160002060006101000a81549073ffffffffffffffffffffffffffffffffffffffff02191690556001600360008573ffffffffffffffffffffffffffffffffffffffff1673ffffffffffffffffffffffffffffffffffffffff168152602001908152602001600020600082825403925050819055506001600360008473ffffffffffffffffffffffffffffffffffffffff1673ffffffffffffffffffffffffffffffffffffffff16815260200190815260200160002060008282540192505081905550816002600083815260200190815260200160002060006101000a81548173ffffffffffffffffffffffffffffffffffffffff021916908373ffffffffffffffffffffffffffffffffffffffff160217905550808273ffffffffffffffffffffffffffffffffffffffff168473ffffffffffffffffffffffffffffffffffffffff167fddf252ad1be2c89b69c2b068fc378daa952ba7f163c4a11628f55a4df523b3ef60405160405180910390a4612f2083838360016136d8565b505050565b60008082905060005b8451811015612f7057612f5b82868381518110612f4e57612f4d614cf7565b5b60200260200101516136de565b91508080612f6890615139565b915050612f2e565b508091505092915050565b8173ffffffffffffffffffffffffffffffffffffffff168373ffffffffffffffffffffffffffffffffffffffff1603612fe9576040517f08c379a0000000000000000000000000000000000000000000000000000000008152600401612fe0906159fe565b60405180910390fd5b80600560008573ffffffffffffffffffffffffffffffffffffffff1673ffffffffffffffffffffffffffffffffffffffff16815260200190815260200160002060008473ffffffffffffffffffffffffffffffffffffffff1673ffffffffffffffffffffffffffffffffffffffff16815260200190815260200160002060006101000a81548160ff0219169083151502179055508173ffffffffffffffffffffffffffffffffffffffff168373ffffffffffffffffffffffffffffffffffffffff167f17307eab39ab6107e8899845ad3d59bd9653f200f220920489ca2b5937696c31836040516130da919061405e565b60405180910390a3505050565b60606000808573ffffffffffffffffffffffffffffffffffffffff16856040516131119190615a4f565b600060405180830381855af49150503d806000811461314c576040519150601f19603f3d011682016040523d82523d6000602084013e613151565b606091505b509150915061316286838387613709565b925050509392505050565b613177838361377e565b613184600084848461399b565b6131c3576040517f08c379a00000000000000000000000000000000000000000000000000000000081526004016131ba90615ad8565b60405180910390fd5b505050565b6131d3848484612c2c565b6131df8484848461399b565b61321e576040517f08c379a000000000000000000000000000000000000000000000000000000000815260040161321590615ad8565b60405180910390fd5b50505050565b6060600e805461323390614aad565b80601f016020809104026020016040519081016040528092919081815260200182805461325f90614aad565b80156132ac5780601f10613281576101008083540402835291602001916132ac565b820191906000526020600020905b81548152906001019060200180831161328f57829003601f168201915b5050505050905090565b6060600060016132c584613b22565b01905060008167ffffffffffffffff8111156132e4576132e36144e4565b5b6040519080825280601f01601f1916602001820160405280156133165781602001600182028036833780820191505090505b509050600082602001820190505b600115613379578080600190039150507f3031323334353637383961626364656600000000000000000000000000000000600a86061a8153600a858161336d5761336c615af8565b5b04945060008503613324575b819350505050919050565b600061338f82613c75565b9050919050565b60606133bc8273ffffffffffffffffffffffffffffffffffffffff16601460ff166133c3565b9050919050565b6060600060028360026133d69190615b27565b6133e09190615237565b67ffffffffffffffff8111156133f9576133f86144e4565b5b6040519080825280601f01601f19166020018201604052801561342b5781602001600182028036833780820191505090505b5090507f30000000000000000000000000000000000000000000000000000000000000008160008151811061346357613462614cf7565b5b60200101907effffffffffffffffffffffffffffffffffffffffffffffffffffffffffffff1916908160001a9053507f7800000000000000000000000000000000000000000000000000000000000000816001815181106134c7576134c6614cf7565b5b60200101907effffffffffffffffffffffffffffffffffffffffffffffffffffffffffffff1916908160001a905350600060018460026135079190615b27565b6135119190615237565b90505b60018111156135b1577f3031323334353637383961626364656600000000000000000000000000000000600f86166010811061355357613552614cf7565b5b1a60f81b82828151811061356a57613569614cf7565b5b60200101907effffffffffffffffffffffffffffffffffffffffffffffffffffffffffffff1916908160001a905350600485901c9450806135aa90615b69565b9050613514565b50600084146135f5576040517f08c379a00000000000000000000000000000000000000000000000000000000081526004016135ec90615bde565b60405180910390fd5b8091505092915050565b6000613661826040518060400160405280602081526020017f5361666545524332303a206c6f772d6c6576656c2063616c6c206661696c65648152508573ffffffffffffffffffffffffffffffffffffffff16613cef9092919063ffffffff16565b90506000815111156136c157808060200190518101906136819190615419565b6136c0576040517f08c379a00000000000000000000000000000000000000000000000000000000081526004016136b790615c70565b60405180910390fd5b5b505050565b6136d284848484611bb5565b50505050565b50505050565b60008183106136f6576136f18284613d07565b613701565b6137008383613d07565b5b905092915050565b6060831561376b5760008351036137635761372385613d1e565b613762576040517f08c379a000000000000000000000000000000000000000000000000000000000815260040161375990615cdc565b60405180910390fd5b5b829050613776565b6137758383613d41565b5b949350505050565b600073ffffffffffffffffffffffffffffffffffffffff168273ffffffffffffffffffffffffffffffffffffffff16036137ed576040517f08c379a00000000000000000000000000000000000000000000000000000000081526004016137e490615d48565b60405180910390fd5b6137f681612992565b15613836576040517f08c379a000000000000000000000000000000000000000000000000000000000815260040161382d90615db4565b60405180910390fd5b6138446000838360016136c6565b61384d81612992565b1561388d576040517f08c379a000000000000000000000000000000000000000000000000000000000815260040161388490615db4565b60405180910390fd5b6001600360008473ffffffffffffffffffffffffffffffffffffffff1673ffffffffffffffffffffffffffffffffffffffff16815260200190815260200160002060008282540192505081905550816002600083815260200190815260200160002060006101000a81548173ffffffffffffffffffffffffffffffffffffffff021916908373ffffffffffffffffffffffffffffffffffffffff160217905550808273ffffffffffffffffffffffffffffffffffffffff16600073ffffffffffffffffffffffffffffffffffffffff167fddf252ad1be2c89b69c2b068fc378daa952ba7f163c4a11628f55a4df523b3ef60405160405180910390a46139976000838360016136d8565b5050565b60006139bc8473ffffffffffffffffffffffffffffffffffffffff16613d1e565b15613b15578373ffffffffffffffffffffffffffffffffffffffff1663150b7a026139e56122ac565b8786866040518563ffffffff1660e01b8152600401613a079493929190615e1e565b6020604051808303816000875af1925050508015613a4357506040513d601f19601f82011682018060405250810190613a409190615e7f565b60015b613ac5573d8060008114613a73576040519150601f19603f3d011682016040523d82523d6000602084013e613a78565b606091505b506000815103613abd576040517f08c379a0000000000000000000000000000000000000000000000000000000008152600401613ab490615ad8565b60405180910390fd5b805181602001fd5b63150b7a0260e01b7bffffffffffffffffffffffffffffffffffffffffffffffffffffffff1916817bffffffffffffffffffffffffffffffffffffffffffffffffffffffff191614915050613b1a565b600190505b949350505050565b600080600090507a184f03e93ff9f4daa797ed6e38ed64bf6a1f0100000000000000008310613b80577a184f03e93ff9f4daa797ed6e38ed64bf6a1f0100000000000000008381613b7657613b75615af8565b5b0492506040810190505b6d04ee2d6d415b85acef81000000008310613bbd576d04ee2d6d415b85acef81000000008381613bb357613bb2615af8565b5b0492506020810190505b662386f26fc100008310613bec57662386f26fc100008381613be257613be1615af8565b5b0492506010810190505b6305f5e1008310613c15576305f5e1008381613c0b57613c0a615af8565b5b0492506008810190505b6127108310613c3a576127108381613c3057613c2f615af8565b5b0492506004810190505b60648310613c5d5760648381613c5357613c52615af8565b5b0492506002810190505b600a8310613c6c576001810190505b80915050919050565b60007f780e9d63000000000000000000000000000000000000000000000000000000007bffffffffffffffffffffffffffffffffffffffffffffffffffffffff1916827bffffffffffffffffffffffffffffffffffffffffffffffffffffffff19161480613ce85750613ce782613d91565b5b9050919050565b6060613cfe8484600085613e73565b90509392505050565b600082600052816020526040600020905092915050565b6000808273ffffffffffffffffffffffffffffffffffffffff163b119050919050565b600082511115613d545781518083602001fd5b806040517f08c379a0000000000000000000000000000000000000000000000000000000008152600401613d889190614109565b60405180910390fd5b60007f80ac58cd000000000000000000000000000000000000000000000000000000007bffffffffffffffffffffffffffffffffffffffffffffffffffffffff1916827bffffffffffffffffffffffffffffffffffffffffffffffffffffffff19161480613e5c57507f5b5e139f000000000000000000000000000000000000000000000000000000007bffffffffffffffffffffffffffffffffffffffffffffffffffffffff1916827bffffffffffffffffffffffffffffffffffffffffffffffffffffffff1916145b80613e6c5750613e6b82613f40565b5b9050919050565b606082471015613eb8576040517f08c379a0000000000000000000000000000000000000000000000000000000008152600401613eaf90615f1e565b60405180910390fd5b6000808673ffffffffffffffffffffffffffffffffffffffff168587604051613ee19190615a4f565b60006040518083038185875af1925050503d8060008114613f1e576040519150601f19603f3d011682016040523d82523d6000602084013e613f23565b606091505b5091509150613f3487838387613709565b92505050949350505050565b60007f01ffc9a7000000000000000000000000000000000000000000000000000000007bffffffffffffffffffffffffffffffffffffffffffffffffffffffff1916827bffffffffffffffffffffffffffffffffffffffffffffffffffffffff1916149050919050565b6000604051905090565b600080fd5b600080fd5b60007fffffffff0000000000000000000000000000000000000000000000000000000082169050919050565b613ff381613fbe565b8114613ffe57600080fd5b50565b60008135905061401081613fea565b92915050565b60006020828403121561402c5761402b613fb4565b5b600061403a84828501614001565b91505092915050565b60008115159050919050565b61405881614043565b82525050565b6000602082019050614073600083018461404f565b92915050565b600081519050919050565b600082825260208201905092915050565b60005b838110156140b3578082015181840152602081019050614098565b60008484015250505050565b6000601f19601f8301169050919050565b60006140db82614079565b6140e58185614084565b93506140f5818560208601614095565b6140fe816140bf565b840191505092915050565b6000602082019050818103600083015261412381846140d0565b905092915050565b6000819050919050565b61413e8161412b565b811461414957600080fd5b50565b60008135905061415b81614135565b92915050565b60006020828403121561417757614176613fb4565b5b60006141858482850161414c565b91505092915050565b600073ffffffffffffffffffffffffffffffffffffffff82169050919050565b60006141b98261418e565b9050919050565b6141c9816141ae565b82525050565b60006020820190506141e460008301846141c0565b92915050565b6141f3816141ae565b81146141fe57600080fd5b50565b600081359050614210816141ea565b92915050565b6000806040838503121561422d5761422c613fb4565b5b600061423b85828601614201565b925050602061424c8582860161414c565b9150509250929050565b60008060006060848603121561426f5761426e613fb4565b5b600061427d86828701614201565b935050602061428e86828701614201565b925050604061429f8682870161414c565b9150509250925092565b6142b28161412b565b82525050565b60006020820190506142cd60008301846142a9565b92915050565b6000819050919050565b6142e6816142d3565b81146142f157600080fd5b50565b600081359050614303816142dd565b92915050565b60006020828403121561431f5761431e613fb4565b5b600061432d848285016142f4565b91505092915050565b61433f816142d3565b82525050565b600060208201905061435a6000830184614336565b92915050565b600080fd5b600080fd5b600080fd5b60008083601f84011261438557614384614360565b5b8235905067ffffffffffffffff8111156143a2576143a1614365565b5b6020830191508360208202830111156143be576143bd61436a565b5b9250929050565b6000806000604084860312156143de576143dd613fb4565b5b60006143ec86828701614201565b935050602084013567ffffffffffffffff81111561440d5761440c613fb9565b5b6144198682870161436f565b92509250509250925092565b6000806040838503121561443c5761443b613fb4565b5b600061444a858286016142f4565b925050602061445b85828601614201565b9150509250929050565b6000819050919050565b600061448a6144856144808461418e565b614465565b61418e565b9050919050565b600061449c8261446f565b9050919050565b60006144ae82614491565b9050919050565b6144be816144a3565b82525050565b60006020820190506144d960008301846144b5565b92915050565b600080fd5b7f4e487b7100000000000000000000000000000000000000000000000000000000600052604160045260246000fd5b61451c826140bf565b810181811067ffffffffffffffff8211171561453b5761453a6144e4565b5b80604052505050565b600061454e613faa565b905061455a8282614513565b919050565b600067ffffffffffffffff82111561457a576145796144e4565b5b614583826140bf565b9050602081019050919050565b82818337600083830152505050565b60006145b26145ad8461455f565b614544565b9050828152602081018484840111156145ce576145cd6144df565b5b6145d9848285614590565b509392505050565b600082601f8301126145f6576145f5614360565b5b813561460684826020860161459f565b91505092915050565b60006020828403121561462557614624613fb4565b5b600082013567ffffffffffffffff81111561464357614642613fb9565b5b61464f848285016145e1565b91505092915050565b60006020828403121561466e5761466d613fb4565b5b600061467c84828501614201565b91505092915050565b61468e81614043565b811461469957600080fd5b50565b6000813590506146ab81614685565b92915050565b600080604083850312156146c8576146c7613fb4565b5b60006146d685828601614201565b92505060206146e78582860161469c565b9150509250929050565b60008083601f84011261470757614706614360565b5b8235905067ffffffffffffffff81111561472457614723614365565b5b6020830191508360208202830111156147405761473f61436a565b5b9250929050565b6000806020838503121561475e5761475d613fb4565b5b600083013567ffffffffffffffff81111561477c5761477b613fb9565b5b614788858286016146f1565b92509250509250929050565b600081519050919050565b600082825260208201905092915050565b6000819050602082019050919050565b600081519050919050565b600082825260208201905092915050565b60006147e7826147c0565b6147f181856147cb565b9350614801818560208601614095565b61480a816140bf565b840191505092915050565b600061482183836147dc565b905092915050565b6000602082019050919050565b600061484182614794565b61484b818561479f565b93508360208202850161485d856147b0565b8060005b85811015614899578484038952815161487a8582614815565b945061488583614829565b925060208a01995050600181019050614861565b50829750879550505050505092915050565b600060208201905081810360008301526148c58184614836565b905092915050565b600080602083850312156148e4576148e3613fb4565b5b600083013567ffffffffffffffff81111561490257614901613fb9565b5b61490e8582860161436f565b92509250509250929050565b600067ffffffffffffffff821115614935576149346144e4565b5b61493e826140bf565b9050602081019050919050565b600061495e6149598461491a565b614544565b90508281526020810184848401111561497a576149796144df565b5b614985848285614590565b509392505050565b600082601f8301126149a2576149a1614360565b5b81356149b284826020860161494b565b91505092915050565b600080600080608085870312156149d5576149d4613fb4565b5b60006149e387828801614201565b94505060206149f487828801614201565b9350506040614a058782880161414c565b925050606085013567ffffffffffffffff811115614a2657614a25613fb9565b5b614a328782880161498d565b91505092959194509250565b60008060408385031215614a5557614a54613fb4565b5b6000614a6385828601614201565b9250506020614a7485828601614201565b9150509250929050565b7f4e487b7100000000000000000000000000000000000000000000000000000000600052602260045260246000fd5b60006002820490506001821680614ac557607f821691505b602082108103614ad857614ad7614a7e565b5b50919050565b60008160601b9050919050565b6000614af682614ade565b9050919050565b6000614b0882614aeb565b9050919050565b614b20614b1b826141ae565b614afd565b82525050565b6000614b328284614b0f565b60148201915081905092915050565b7f455243373231456e756d657261626c653a206f776e657220696e646578206f7560008201527f74206f6620626f756e6473000000000000000000000000000000000000000000602082015250565b6000614b9d602b83614084565b9150614ba882614b41565b604082019050919050565b60006020820190508181036000830152614bcc81614b90565b9050919050565b7f416363657373436f6e74726f6c3a2063616e206f6e6c792072656e6f756e636560008201527f20726f6c657320666f722073656c660000000000000000000000000000000000602082015250565b6000614c2f602f83614084565b9150614c3a82614bd3565b604082019050919050565b60006020820190508181036000830152614c5e81614c22565b9050919050565b7f455243373231456e756d657261626c653a20676c6f62616c20696e646578206f60008201527f7574206f6620626f756e64730000000000000000000000000000000000000000602082015250565b6000614cc1602c83614084565b9150614ccc82614c65565b604082019050919050565b60006020820190508181036000830152614cf081614cb4565b9050919050565b7f4e487b7100000000000000000000000000000000000000000000000000000000600052603260045260246000fd5b60008190508160005260206000209050919050565b60006020601f8301049050919050565b600082821b905092915050565b600060088302614d887fffffffffffffffffffffffffffffffffffffffffffffffffffffffffffffffff82614d4b565b614d928683614d4b565b95508019841693508086168417925050509392505050565b6000614dc5614dc0614dbb8461412b565b614465565b61412b565b9050919050565b6000819050919050565b614ddf83614daa565b614df3614deb82614dcc565b848454614d58565b825550505050565b600090565b614e08614dfb565b614e13818484614dd6565b505050565b5b81811015614e3757614e2c600082614e00565b600181019050614e19565b5050565b601f821115614e7c57614e4d81614d26565b614e5684614d3b565b81016020851015614e65578190505b614e79614e7185614d3b565b830182614e18565b50505b505050565b600082821c905092915050565b6000614e9f60001984600802614e81565b1980831691505092915050565b6000614eb88383614e8e565b9150826002028217905092915050565b614ed182614079565b67ffffffffffffffff811115614eea57614ee96144e4565b5b614ef48254614aad565b614eff828285614e3b565b600060209050601f831160018114614f325760008415614f20578287015190505b614f2a8582614eac565b865550614f92565b601f198416614f4086614d26565b60005b82811015614f6857848901518255600182019150602085019450602081019050614f43565b86831015614f855784890151614f81601f891682614e8e565b8355505b6001600288020188555050505b505050505050565b7f4552433732313a20696e76616c696420746f6b656e2049440000000000000000600082015250565b6000614fd0601883614084565b9150614fdb82614f9a565b602082019050919050565b60006020820190508181036000830152614fff81614fc3565b9050919050565b7f4552433732313a2061646472657373207a65726f206973206e6f74206120766160008201527f6c6964206f776e65720000000000000000000000000000000000000000000000602082015250565b6000615062602983614084565b915061506d82615006565b604082019050919050565b6000602082019050818103600083015261509181615055565b9050919050565b600080fd5b600080fd5b600080fd5b600080833560016020038436030381126150c4576150c3615098565b5b80840192508235915067ffffffffffffffff8211156150e6576150e561509d565b5b602083019250600182023603831315615102576151016150a2565b5b509250929050565b7f4e487b7100000000000000000000000000000000000000000000000000000000600052601160045260246000fd5b60006151448261412b565b91507fffffffffffffffffffffffffffffffffffffffffffffffffffffffffffffffff82036151765761517561510a565b5b600182019050919050565b600060408201905061519660008301856142a9565b6151a360208301846142a9565b9392505050565b6000819050919050565b60006151cf6151ca6151c5846151aa565b614465565b61412b565b9050919050565b6151df816151b4565b82525050565b60006040820190506151fa60008301856151d6565b61520760208301846151d6565b9392505050565b600060408201905061522360008301856142a9565b61523060208301846151d6565b9392505050565b60006152428261412b565b915061524d8361412b565b92508282019050808211156152655761526461510a565b5b92915050565b600081905092915050565b600061528182614079565b61528b818561526b565b935061529b818560208601614095565b80840191505092915050565b7f2e6a736f6e000000000000000000000000000000000000000000000000000000600082015250565b60006152dd60058361526b565b91506152e8826152a7565b600582019050919050565b60006152ff8284615276565b915061530a826152d0565b915081905092915050565b7f455243373231456e756d657261626c653a20636f6e736563757469766520747260008201527f616e7366657273206e6f7420737570706f727465640000000000000000000000602082015250565b6000615371603583614084565b915061537c82615315565b604082019050919050565b600060208201905081810360008301526153a081615364565b9050919050565b60006153b28261412b565b91506153bd8361412b565b92508282039050818111156153d5576153d461510a565b5b92915050565b60006040820190506153f060008301856141c0565b6153fd60208301846141c0565b9392505050565b60008151905061541381614685565b92915050565b60006020828403121561542f5761542e613fb4565b5b600061543d84828501615404565b91505092915050565b7f4552433732313a20617070726f76616c20746f2063757272656e74206f776e6560008201527f7200000000000000000000000000000000000000000000000000000000000000602082015250565b60006154a2602183614084565b91506154ad82615446565b604082019050919050565b600060208201905081810360008301526154d181615495565b9050919050565b7f4552433732313a20617070726f76652063616c6c6572206973206e6f7420746f60008201527f6b656e206f776e6572206f7220617070726f76656420666f7220616c6c000000602082015250565b6000615534603d83614084565b915061553f826154d8565b604082019050919050565b6000602082019050818103600083015261556381615527565b9050919050565b7f4552433732313a2063616c6c6572206973206e6f7420746f6b656e206f776e6560008201527f72206f7220617070726f76656400000000000000000000000000000000000000602082015250565b60006155c6602d83614084565b91506155d18261556a565b604082019050919050565b600060208201905081810360008301526155f5816155b9565b9050919050565b7f416464726573733a20696e73756666696369656e742062616c616e6365000000600082015250565b6000615632601d83614084565b915061563d826155fc565b602082019050919050565b6000602082019050818103600083015261566181615625565b9050919050565b600081905092915050565b50565b6000615683600083615668565b915061568e82615673565b600082019050919050565b60006156a482615676565b9150819050919050565b7f416464726573733a20756e61626c6520746f2073656e642076616c75652c207260008201527f6563697069656e74206d61792068617665207265766572746564000000000000602082015250565b600061570a603a83614084565b9150615715826156ae565b604082019050919050565b60006020820190508181036000830152615739816156fd565b9050919050565b600061574c8285615276565b91506157588284615276565b91508190509392505050565b7f4e487b7100000000000000000000000000000000000000000000000000000000600052603160045260246000fd5b7f416363657373436f6e74726f6c3a206163636f756e7420000000000000000000600082015250565b60006157c960178361526b565b91506157d482615793565b601782019050919050565b7f206973206d697373696e6720726f6c6520000000000000000000000000000000600082015250565b600061581560118361526b565b9150615820826157df565b601182019050919050565b6000615836826157bc565b91506158428285615276565b915061584d82615808565b91506158598284615276565b91508190509392505050565b600060408201905061587a60008301856141c0565b61588760208301846142a9565b9392505050565b7f4552433732313a207472616e736665722066726f6d20696e636f72726563742060008201527f6f776e6572000000000000000000000000000000000000000000000000000000602082015250565b60006158ea602583614084565b91506158f58261588e565b604082019050919050565b60006020820190508181036000830152615919816158dd565b9050919050565b7f4552433732313a207472616e7366657220746f20746865207a65726f2061646460008201527f7265737300000000000000000000000000000000000000000000000000000000602082015250565b600061597c602483614084565b915061598782615920565b604082019050919050565b600060208201905081810360008301526159ab8161596f565b9050919050565b7f4552433732313a20617070726f766520746f2063616c6c657200000000000000600082015250565b60006159e8601983614084565b91506159f3826159b2565b602082019050919050565b60006020820190508181036000830152615a17816159db565b9050919050565b6000615a29826147c0565b615a338185615668565b9350615a43818560208601614095565b80840191505092915050565b6000615a5b8284615a1e565b915081905092915050565b7f4552433732313a207472616e7366657220746f206e6f6e20455243373231526560008201527f63656976657220696d706c656d656e7465720000000000000000000000000000602082015250565b6000615ac2603283614084565b9150615acd82615a66565b604082019050919050565b60006020820190508181036000830152615af181615ab5565b9050919050565b7f4e487b7100000000000000000000000000000000000000000000000000000000600052601260045260246000fd5b6000615b328261412b565b9150615b3d8361412b565b9250828202615b4b8161412b565b91508282048414831517615b6257615b6161510a565b5b5092915050565b6000615b748261412b565b915060008203615b8757615b8661510a565b5b600182039050919050565b7f537472696e67733a20686578206c656e67746820696e73756666696369656e74600082015250565b6000615bc8602083614084565b9150615bd382615b92565b602082019050919050565b60006020820190508181036000830152615bf781615bbb565b9050919050565b7f5361666545524332303a204552433230206f7065726174696f6e20646964206e60008201527f6f74207375636365656400000000000000000000000000000000000000000000602082015250565b6000615c5a602a83614084565b9150615c6582615bfe565b604082019050919050565b60006020820190508181036000830152615c8981615c4d565b9050919050565b7f416464726573733a2063616c6c20746f206e6f6e2d636f6e7472616374000000600082015250565b6000615cc6601d83614084565b9150615cd182615c90565b602082019050919050565b60006020820190508181036000830152615cf581615cb9565b9050919050565b7f4552433732313a206d696e7420746f20746865207a65726f2061646472657373600082015250565b6000615d32602083614084565b9150615d3d82615cfc565b602082019050919050565b60006020820190508181036000830152615d6181615d25565b9050919050565b7f4552433732313a20746f6b656e20616c7265616479206d696e74656400000000600082015250565b6000615d9e601c83614084565b9150615da982615d68565b602082019050919050565b60006020820190508181036000830152615dcd81615d91565b9050919050565b600082825260208201905092915050565b6000615df0826147c0565b615dfa8185615dd4565b9350615e0a818560208601614095565b615e13816140bf565b840191505092915050565b6000608082019050615e3360008301876141c0565b615e4060208301866141c0565b615e4d60408301856142a9565b8181036060830152615e5f8184615de5565b905095945050505050565b600081519050615e7981613fea565b92915050565b600060208284031215615e9557615e94613fb4565b5b6000615ea384828501615e6a565b91505092915050565b7f416464726573733a20696e73756666696369656e742062616c616e636520666f60008201527f722063616c6c0000000000000000000000000000000000000000000000000000602082015250565b6000615f08602683614084565b9150615f1382615eac565b604082019050919050565b60006020820190508181036000830152615f3781615efb565b905091905056fe416464726573733a206c6f772d6c6576656c2064656c65676174652063616c6c206661696c6564a264697066735822122053c8ede8269ac282cb7fce57746fbce4a7a1407555fcbb844384fafefe0e864e64736f6c63430008110033",
  "linkReferences": {},
  "deployedLinkReferences": {}
}